{"contracts/Block_Maker.sol":{"Block_maker":{"abi":[{"inputs":[],"stateMutability":"nonpayable","type":"constructor"},{"anonymous":false,"inputs":[{"indexed":false,"internalType":"string","name":"json","type":"string"}],"name":"JsonBlock","type":"event"},{"anonymous":false,"inputs":[{"indexed":false,"internalType":"uint256","name":"number","type":"uint256"},{"indexed":false,"internalType":"address","name":"sender","type":"address"},{"indexed":false,"internalType":"address","name":"reciever","type":"address"},{"indexed":false,"internalType":"uint256","name":"amount","type":"uint256"}],"name":"newTransaction","type":"event"},{"anonymous":false,"inputs":[{"indexed":false,"internalType":"address","name":"winner","type":"address"},{"indexed":false,"internalType":"uint256","name":"numberOfCoins","type":"uint256"},{"indexed":false,"internalType":"uint256","name":"transactionNumber","type":"uint256"}],"name":"winCoins","type":"event"},{"inputs":[],"name":"createBlock","outputs":[],"stateMutability":"nonpayable","type":"function"},{"inputs":[],"name":"newSpin","outputs":[],"stateMutability":"nonpayable","type":"function"},{"inputs":[{"internalType":"uint256","name":"amount","type":"uint256"},{"internalType":"address","name":"reciever","type":"address"}],"name":"send_scam_coins","outputs":[],"stateMutability":"nonpayable","type":"function"},{"inputs":[{"internalType":"uint256","name":"transaction_id","type":"uint256"}],"name":"validate","outputs":[],"stateMutability":"nonpayable","type":"function"}],"evm":{"bytecode":{"linkReferences":{},"object":"608060405260016000553480156200001657600080fd5b5033600160006101000a81548173ffffffffffffffffffffffffffffffffffffffff021916908373ffffffffffffffffffffffffffffffffffffffff16021790555060006003819055507f466972737420426c6f636b00000000000000000000000000000000000000000060028190555060006040518060a0016040528060018152602001600073ffffffffffffffffffffffffffffffffffffffff1681526020013373ffffffffffffffffffffffffffffffffffffffff168152602001611388815260200160011515815250905060048190806001815401808255809150506001900390600052602060002090600502016000909190919091506000820151816000015560208201518160010160006101000a81548173ffffffffffffffffffffffffffffffffffffffff021916908373ffffffffffffffffffffffffffffffffffffffff16021790555060408201518160020160006101000a81548173ffffffffffffffffffffffffffffffffffffffff021916908373ffffffffffffffffffffffffffffffffffffffff1602179055506060820151816003015560808201518160040160006101000a81548160ff0219169083151502179055505050620001e5620001ec60201b60201c565b506200135a565b600160009054906101000a900473ffffffffffffffffffffffffffffffffffffffff1673ffffffffffffffffffffffffffffffffffffffff163373ffffffffffffffffffffffffffffffffffffffff16146200027f576040517f08c379a000000000000000000000000000000000000000000000000000000000815260040162000276906200094d565b60405180910390fd5b600060048054905067ffffffffffffffff811115620002a357620002a26200096f565b5b604051908082528060200260200182016040528015620002d857816020015b6060815260200190600190039081620002c25790505b509050600254604051602001620002f0919062000a78565b6040516020818303038152906040528160008151811062000316576200031562000aaf565b5b6020026020010181905250620003346003546200068e60201b60201c565b60405160200162000346919062000bec565b604051602081830303815290604052816001815181106200036c576200036b62000aaf565b5b602002602001018190525062000388426200068e60201b60201c565b6040516020016200039a919062000c6f565b60405160208183030381529060405281600281518110620003c057620003bf62000aaf565b5b602002602001018190525060006003905060005b6004805490508110156200059a576001151560048281548110620003fd57620003fc62000aaf565b5b906000526020600020906005020160040160009054906101000a900460ff16151503620005845760006200045f6004838154811062000441576200044062000aaf565b5b9060005260206000209060050201600001546200068e60201b60201c565b6004838154811062000476576200047562000aaf565b5b906000526020600020906005020160010160009054906101000a900473ffffffffffffffffffffffffffffffffffffffff1660048481548110620004bf57620004be62000aaf565b5b906000526020600020906005020160020160009054906101000a900473ffffffffffffffffffffffffffffffffffffffff166200052a600486815481106200050c576200050b62000aaf565b5b9060005260206000209060050201600301546200068e60201b60201c565b6040516020016200053f949392919062000f56565b60405160208183030381529060405290508084848151811062000567576200056662000aaf565b5b602002602001018190525082806200057f906200105f565b935050505b808062000591906200105f565b915050620003d4565b506000620005e4836040518060400160405280600181526020017f2c000000000000000000000000000000000000000000000000000000000000008152506200080760201b60201c565b604051602001620005f691906200114c565b60405160208183030381529060405290507f59001e29d8bb7c2e7e5985436ea2f292294e757e63a167af3980fda2528d610681604051620006389190620011d1565b60405180910390a180604051602001620006539190620011f5565b604051602081830303815290604052805190602001206002819055506003600081548092919062000684906200105f565b9190505550505050565b606060008203620006d7576040518060400160405280600181526020017f3000000000000000000000000000000000000000000000000000000000000000815250905062000802565b600082905060005b600082146200070f578080620006f5906200105f565b915050600a826200070791906200123d565b9150620006df565b60008167ffffffffffffffff8111156200072e576200072d6200096f565b5b6040519080825280601f01601f191660200182016040528015620007615781602001600182028036833780820191505090505b5090505b60008514620007fb576001826200077d919062001275565b9150600a856200078e9190620012b0565b60306200079c9190620012e8565b60f81b818381518110620007b557620007b462000aaf565b5b60200101907effffffffffffffffffffffffffffffffffffffffffffffffffffffffffffff1916908160001a905350600a85620007f391906200123d565b945062000765565b8093505050505b919050565b606060008351036200082b57604051806020016040528060008152509050620008c0565b60008360008151811062000844576200084362000aaf565b5b602002602001015190506000600190505b8451811015620008ba57818486838151811062000877576200087662000aaf565b5b6020026020010151604051602001620008939392919062001323565b60405160208183030381529060405291508080620008b1906200105f565b91505062000855565b50809150505b92915050565b600082825260208201905092915050565b7f4f6e6c7920746865206f776e65722063616e2063616c6c20746869732066756e60008201527f6374696f6e000000000000000000000000000000000000000000000000000000602082015250565b600062000935602583620008c6565b91506200094282620008d7565b604082019050919050565b60006020820190508181036000830152620009688162000926565b9050919050565b7f4e487b7100000000000000000000000000000000000000000000000000000000600052604160045260246000fd5b600081905092915050565b7f7b2270726576696f75735f68617368223a220000000000000000000000000000600082015250565b6000620009e16012836200099e565b9150620009ee82620009a9565b601282019050919050565b6000819050919050565b6000819050919050565b62000a2262000a1c82620009f9565b62000a03565b82525050565b7f222c000000000000000000000000000000000000000000000000000000000000600082015250565b600062000a606002836200099e565b915062000a6d8262000a28565b600282019050919050565b600062000a8582620009d2565b915062000a93828462000a0d565b60208201915062000aa48262000a51565b915081905092915050565b7f4e487b7100000000000000000000000000000000000000000000000000000000600052603260045260246000fd5b7f22626c6f636b5f6e756d626572223a0000000000000000000000000000000000600082015250565b600062000b16600f836200099e565b915062000b238262000ade565b600f82019050919050565b600081519050919050565b60005b8381101562000b5957808201518184015260208101905062000b3c565b60008484015250505050565b600062000b728262000b2e565b62000b7e81856200099e565b935062000b9081856020860162000b39565b80840191505092915050565b7f2c00000000000000000000000000000000000000000000000000000000000000600082015250565b600062000bd46001836200099e565b915062000be18262000b9c565b600182019050919050565b600062000bf98262000b07565b915062000c07828462000b65565b915062000c148262000bc5565b915081905092915050565b7f2274696d657374616d70223a0000000000000000000000000000000000000000600082015250565b600062000c57600c836200099e565b915062000c648262000c1f565b600c82019050919050565b600062000c7c8262000c48565b915062000c8a828462000b65565b915062000c978262000bc5565b915081905092915050565b7f7b00000000000000000000000000000000000000000000000000000000000000600082015250565b600062000cda6001836200099e565b915062000ce78262000ca2565b600182019050919050565b7f226e756d626572223a2200000000000000000000000000000000000000000000600082015250565b600062000d2a600a836200099e565b915062000d378262000cf2565b600a82019050919050565b7f2273656e646572223a2200000000000000000000000000000000000000000000600082015250565b600062000d7a600a836200099e565b915062000d878262000d42565b600a82019050919050565b600073ffffffffffffffffffffffffffffffffffffffff82169050919050565b600062000dbf8262000d92565b9050919050565b60008160601b9050919050565b600062000de08262000dc6565b9050919050565b600062000df48262000dd3565b9050919050565b62000e1062000e0a8262000db2565b62000de7565b82525050565b7f227265636569766572223a220000000000000000000000000000000000000000600082015250565b600062000e4e600c836200099e565b915062000e5b8262000e16565b600c82019050919050565b7f22616d6f756e74223a2200000000000000000000000000000000000000000000600082015250565b600062000e9e600a836200099e565b915062000eab8262000e66565b600a82019050919050565b7f2200000000000000000000000000000000000000000000000000000000000000600082015250565b600062000eee6001836200099e565b915062000efb8262000eb6565b600182019050919050565b7f7d00000000000000000000000000000000000000000000000000000000000000600082015250565b600062000f3e6001836200099e565b915062000f4b8262000f06565b600182019050919050565b600062000f638262000ccb565b915062000f708262000d1b565b915062000f7e828762000b65565b915062000f8b8262000a51565b915062000f988262000d6b565b915062000fa6828662000dfb565b60148201915062000fb78262000a51565b915062000fc48262000e3f565b915062000fd2828562000dfb565b60148201915062000fe38262000a51565b915062000ff08262000e8f565b915062000ffe828462000b65565b91506200100b8262000edf565b9150620010188262000f2f565b915081905095945050505050565b7f4e487b7100000000000000000000000000000000000000000000000000000000600052601160045260246000fd5b6000819050919050565b60006200106c8262001055565b91507fffffffffffffffffffffffffffffffffffffffffffffffffffffffffffffffff8203620010a157620010a062001026565b5b600182019050919050565b7f5b00000000000000000000000000000000000000000000000000000000000000600082015250565b6000620010e46001836200099e565b9150620010f182620010ac565b600182019050919050565b7f5d00000000000000000000000000000000000000000000000000000000000000600082015250565b6000620011346001836200099e565b91506200114182620010fc565b600182019050919050565b60006200115982620010d5565b915062001167828462000b65565b9150620011748262001125565b915081905092915050565b6000601f19601f8301169050919050565b60006200119d8262000b2e565b620011a98185620008c6565b9350620011bb81856020860162000b39565b620011c6816200117f565b840191505092915050565b60006020820190508181036000830152620011ed818462001190565b905092915050565b600062001203828462000b65565b915081905092915050565b7f4e487b7100000000000000000000000000000000000000000000000000000000600052601260045260246000fd5b60006200124a8262001055565b9150620012578362001055565b9250826200126a57620012696200120e565b5b828204905092915050565b6000620012828262001055565b91506200128f8362001055565b9250828203905081811115620012aa57620012a962001026565b5b92915050565b6000620012bd8262001055565b9150620012ca8362001055565b925082620012dd57620012dc6200120e565b5b828206905092915050565b6000620012f58262001055565b9150620013028362001055565b92508282019050808211156200131d576200131c62001026565b5b92915050565b600062001331828662000b65565b91506200133f828562000b65565b91506200134d828462000b65565b9150819050949350505050565b611844806200136a6000396000f3fe608060405234801561001057600080fd5b506004361061004c5760003560e01c80632676c4c4146100515780633e745ea91461005b578063ccebafd814610077578063ce4d01a314610081575b600080fd5b61005961009d565b005b61007560048036038101906100709190610ca6565b610336565b005b61007f6104df565b005b61009b60048036038101906100969190610ce6565b61091f565b005b6000336040516020016100b09190610d5b565b604051602081830303815290604052426040516020016100d09190610d97565b6040516020818303038152906040526040516020016100f0929190610e23565b60405160208183030381529060405260405160200161010f9190610e47565b6040516020818303038152906040528051906020012060001c905060008060648361013a9190610e8d565b03610149576103e8905061018a565b6000600a836101589190610e8d565b036101665760c89050610189565b60006002836101759190610e8d565b036101835760329050610188565b601990505b5b5b60006040518060a001604052806000548152602001600073ffffffffffffffffffffffffffffffffffffffff1681526020013373ffffffffffffffffffffffffffffffffffffffff1681526020018361ffff16815260200160011515815250905060048190806001815401808255809150506001900390600052602060002090600502016000909190919091506000820151816000015560208201518160010160006101000a81548173ffffffffffffffffffffffffffffffffffffffff021916908373ffffffffffffffffffffffffffffffffffffffff16021790555060408201518160020160006101000a81548173ffffffffffffffffffffffffffffffffffffffff021916908373ffffffffffffffffffffffffffffffffffffffff1602179055506060820151816003015560808201518160040160006101000a81548160ff02191690831515021790555050507f126c048a15902cf0222584748e8cb01da45a1928f59f5f2a28cef76ea883eb45338360005460405161031093929190610f25565b60405180910390a1600160008082825461032a9190610f8b565b92505081905550505050565b60006040518060a0016040528060005481526020013373ffffffffffffffffffffffffffffffffffffffff1681526020018373ffffffffffffffffffffffffffffffffffffffff16815260200184815260200160001515815250905060048190806001815401808255809150506001900390600052602060002090600502016000909190919091506000820151816000015560208201518160010160006101000a81548173ffffffffffffffffffffffffffffffffffffffff021916908373ffffffffffffffffffffffffffffffffffffffff16021790555060408201518160020160006101000a81548173ffffffffffffffffffffffffffffffffffffffff021916908373ffffffffffffffffffffffffffffffffffffffff1602179055506060820151816003015560808201518160040160006101000a81548160ff02191690831515021790555050507f79546e4f645f4b6424eb5e81fb1fbb7b38c81b544068a5c4e763dc100a67148e6000543384866040516104b99493929190610fbf565b60405180910390a160016000808282546104d39190610f8b565b92505081905550505050565b600160009054906101000a900473ffffffffffffffffffffffffffffffffffffffff1673ffffffffffffffffffffffffffffffffffffffff163373ffffffffffffffffffffffffffffffffffffffff161461056f576040517f08c379a000000000000000000000000000000000000000000000000000000000815260040161056690611087565b60405180910390fd5b600060048054905067ffffffffffffffff8111156105905761058f6110a7565b5b6040519080825280602002602001820160405280156105c357816020015b60608152602001906001900390816105ae5790505b5090506002546040516020016105d99190611199565b604051602081830303815290604052816000815181106105fc576105fb6111ca565b5b60200260200101819052506106126003546109fc565b6040516020016106229190611291565b60405160208183030381529060405281600181518110610645576106446111ca565b5b6020026020010181905250610659426109fc565b604051602001610669919061130a565b6040516020818303038152906040528160028151811061068c5761068b6111ca565b5b602002602001018190525060006003905060005b60048054905081101561083b5760011515600482815481106106c5576106c46111ca565b5b906000526020600020906005020160040160009054906101000a900460ff1615150361082857600061071b60048381548110610704576107036111ca565b5b9060005260206000209060050201600001546109fc565b6004838154811061072f5761072e6111ca565b5b906000526020600020906005020160010160009054906101000a900473ffffffffffffffffffffffffffffffffffffffff1660048481548110610775576107746111ca565b5b906000526020600020906005020160020160009054906101000a900473ffffffffffffffffffffffffffffffffffffffff166107d5600486815481106107be576107bd6111ca565b5b9060005260206000209060050201600301546109fc565b6040516020016107e8949392919061154b565b60405160208183030381529060405290508084848151811061080d5761080c6111ca565b5b60200260200101819052508280610823906115ff565b935050505b8080610833906115ff565b9150506106a0565b50600061087d836040518060400160405280600181526020017f2c00000000000000000000000000000000000000000000000000000000000000815250610b5c565b60405160200161088d91906116df565b60405160208183030381529060405290507f59001e29d8bb7c2e7e5985436ea2f292294e757e63a167af3980fda2528d6106816040516108cd9190611756565b60405180910390a1806040516020016108e69190610e47565b6040516020818303038152906040528051906020012060028190555060036000815480929190610915906115ff565b9190505550505050565b600160009054906101000a900473ffffffffffffffffffffffffffffffffffffffff1673ffffffffffffffffffffffffffffffffffffffff163373ffffffffffffffffffffffffffffffffffffffff16146109af576040517f08c379a00000000000000000000000000000000000000000000000000000000081526004016109a690611087565b60405180910390fd5b600160046001836109c09190611778565b815481106109d1576109d06111ca565b5b906000526020600020906005020160040160006101000a81548160ff02191690831515021790555050565b606060008203610a43576040518060400160405280600181526020017f30000000000000000000000000000000000000000000000000000000000000008152509050610b57565b600082905060005b60008214610a75578080610a5e906115ff565b915050600a82610a6e91906117ac565b9150610a4b565b60008167ffffffffffffffff811115610a9157610a906110a7565b5b6040519080825280601f01601f191660200182016040528015610ac35781602001600182028036833780820191505090505b5090505b60008514610b5057600182610adc9190611778565b9150600a85610aeb9190610e8d565b6030610af79190610f8b565b60f81b818381518110610b0d57610b0c6111ca565b5b60200101907effffffffffffffffffffffffffffffffffffffffffffffffffffffffffffff1916908160001a905350600a85610b4991906117ac565b9450610ac7565b8093505050505b919050565b60606000835103610b7e57604051806020016040528060008152509050610c07565b600083600081518110610b9457610b936111ca565b5b602002602001015190506000600190505b8451811015610c01578184868381518110610bc357610bc26111ca565b5b6020026020010151604051602001610bdd939291906117dd565b60405160208183030381529060405291508080610bf9906115ff565b915050610ba5565b50809150505b92915050565b600080fd5b6000819050919050565b610c2581610c12565b8114610c3057600080fd5b50565b600081359050610c4281610c1c565b92915050565b600073ffffffffffffffffffffffffffffffffffffffff82169050919050565b6000610c7382610c48565b9050919050565b610c8381610c68565b8114610c8e57600080fd5b50565b600081359050610ca081610c7a565b92915050565b60008060408385031215610cbd57610cbc610c0d565b5b6000610ccb85828601610c33565b9250506020610cdc85828601610c91565b9150509250929050565b600060208284031215610cfc57610cfb610c0d565b5b6000610d0a84828501610c33565b91505092915050565b60008160601b9050919050565b6000610d2b82610d13565b9050919050565b6000610d3d82610d20565b9050919050565b610d55610d5082610c68565b610d32565b82525050565b6000610d678284610d44565b60148201915081905092915050565b6000819050919050565b610d91610d8c82610c12565b610d76565b82525050565b6000610da38284610d80565b60208201915081905092915050565b600081519050919050565b600081905092915050565b60005b83811015610de6578082015181840152602081019050610dcb565b60008484015250505050565b6000610dfd82610db2565b610e078185610dbd565b9350610e17818560208601610dc8565b80840191505092915050565b6000610e2f8285610df2565b9150610e3b8284610df2565b91508190509392505050565b6000610e538284610df2565b915081905092915050565b7f4e487b7100000000000000000000000000000000000000000000000000000000600052601260045260246000fd5b6000610e9882610c12565b9150610ea383610c12565b925082610eb357610eb2610e5e565b5b828206905092915050565b610ec781610c68565b82525050565b600061ffff82169050919050565b6000819050919050565b6000610f00610efb610ef684610ecd565b610edb565b610c12565b9050919050565b610f1081610ee5565b82525050565b610f1f81610c12565b82525050565b6000606082019050610f3a6000830186610ebe565b610f476020830185610f07565b610f546040830184610f16565b949350505050565b7f4e487b7100000000000000000000000000000000000000000000000000000000600052601160045260246000fd5b6000610f9682610c12565b9150610fa183610c12565b9250828201905080821115610fb957610fb8610f5c565b5b92915050565b6000608082019050610fd46000830187610f16565b610fe16020830186610ebe565b610fee6040830185610ebe565b610ffb6060830184610f16565b95945050505050565b600082825260208201905092915050565b7f4f6e6c7920746865206f776e65722063616e2063616c6c20746869732066756e60008201527f6374696f6e000000000000000000000000000000000000000000000000000000602082015250565b6000611071602583611004565b915061107c82611015565b604082019050919050565b600060208201905081810360008301526110a081611064565b9050919050565b7f4e487b7100000000000000000000000000000000000000000000000000000000600052604160045260246000fd5b7f7b2270726576696f75735f68617368223a220000000000000000000000000000600082015250565b600061110c601283610dbd565b9150611117826110d6565b601282019050919050565b6000819050919050565b6000819050919050565b61114761114282611122565b61112c565b82525050565b7f222c000000000000000000000000000000000000000000000000000000000000600082015250565b6000611183600283610dbd565b915061118e8261114d565b600282019050919050565b60006111a4826110ff565b91506111b08284611136565b6020820191506111bf82611176565b915081905092915050565b7f4e487b7100000000000000000000000000000000000000000000000000000000600052603260045260246000fd5b7f22626c6f636b5f6e756d626572223a0000000000000000000000000000000000600082015250565b600061122f600f83610dbd565b915061123a826111f9565b600f82019050919050565b7f2c00000000000000000000000000000000000000000000000000000000000000600082015250565b600061127b600183610dbd565b915061128682611245565b600182019050919050565b600061129c82611222565b91506112a88284610df2565b91506112b38261126e565b915081905092915050565b7f2274696d657374616d70223a0000000000000000000000000000000000000000600082015250565b60006112f4600c83610dbd565b91506112ff826112be565b600c82019050919050565b6000611315826112e7565b91506113218284610df2565b915061132c8261126e565b915081905092915050565b7f7b00000000000000000000000000000000000000000000000000000000000000600082015250565b600061136d600183610dbd565b915061137882611337565b600182019050919050565b7f226e756d626572223a2200000000000000000000000000000000000000000000600082015250565b60006113b9600a83610dbd565b91506113c482611383565b600a82019050919050565b7f2273656e646572223a2200000000000000000000000000000000000000000000600082015250565b6000611405600a83610dbd565b9150611410826113cf565b600a82019050919050565b7f227265636569766572223a220000000000000000000000000000000000000000600082015250565b6000611451600c83610dbd565b915061145c8261141b565b600c82019050919050565b7f22616d6f756e74223a2200000000000000000000000000000000000000000000600082015250565b600061149d600a83610dbd565b91506114a882611467565b600a82019050919050565b7f2200000000000000000000000000000000000000000000000000000000000000600082015250565b60006114e9600183610dbd565b91506114f4826114b3565b600182019050919050565b7f7d00000000000000000000000000000000000000000000000000000000000000600082015250565b6000611535600183610dbd565b9150611540826114ff565b600182019050919050565b600061155682611360565b9150611561826113ac565b915061156d8287610df2565b915061157882611176565b9150611583826113f8565b915061158f8286610d44565b60148201915061159e82611176565b91506115a982611444565b91506115b58285610d44565b6014820191506115c482611176565b91506115cf82611490565b91506115db8284610df2565b91506115e6826114dc565b91506115f182611528565b915081905095945050505050565b600061160a82610c12565b91507fffffffffffffffffffffffffffffffffffffffffffffffffffffffffffffffff820361163c5761163b610f5c565b5b600182019050919050565b7f5b00000000000000000000000000000000000000000000000000000000000000600082015250565b600061167d600183610dbd565b915061168882611647565b600182019050919050565b7f5d00000000000000000000000000000000000000000000000000000000000000600082015250565b60006116c9600183610dbd565b91506116d482611693565b600182019050919050565b60006116ea82611670565b91506116f68284610df2565b9150611701826116bc565b915081905092915050565b6000601f19601f8301169050919050565b600061172882610db2565b6117328185611004565b9350611742818560208601610dc8565b61174b8161170c565b840191505092915050565b60006020820190508181036000830152611770818461171d565b905092915050565b600061178382610c12565b915061178e83610c12565b92508282039050818111156117a6576117a5610f5c565b5b92915050565b60006117b782610c12565b91506117c283610c12565b9250826117d2576117d1610e5e565b5b828204905092915050565b60006117e98286610df2565b91506117f58285610df2565b91506118018284610df2565b915081905094935050505056fea2646970667358221220c0a9667b7fccb2a16405c180ad9e82a14feff71c9a090bdf90b5c480ca08dab564736f6c63430008130033","opcodes":"PUSH1 0x80 PUSH1 0x40 MSTORE PUSH1 0x1 PUSH1 0x0 SSTORE CALLVALUE DUP1 ISZERO PUSH3 0x16 JUMPI PUSH1 0x0 DUP1 REVERT JUMPDEST POP CALLER PUSH1 0x1 PUSH1 0x0 PUSH2 0x100 EXP DUP2 SLOAD DUP2 PUSH20 0xFFFFFFFFFFFFFFFFFFFFFFFFFFFFFFFFFFFFFFFF MUL NOT AND SWAP1 DUP4 PUSH20 0xFFFFFFFFFFFFFFFFFFFFFFFFFFFFFFFFFFFFFFFF AND MUL OR SWAP1 SSTORE POP PUSH1 0x0 PUSH1 0x3 DUP2 SWAP1 SSTORE POP PUSH32 0x466972737420426C6F636B000000000000000000000000000000000000000000 PUSH1 0x2 DUP2 SWAP1 SSTORE POP PUSH1 0x0 PUSH1 0x40 MLOAD DUP1 PUSH1 0xA0 ADD PUSH1 0x40 MSTORE DUP1 PUSH1 0x1 DUP2 MSTORE PUSH1 0x20 ADD PUSH1 0x0 PUSH20 0xFFFFFFFFFFFFFFFFFFFFFFFFFFFFFFFFFFFFFFFF AND DUP2 MSTORE PUSH1 0x20 ADD CALLER PUSH20 0xFFFFFFFFFFFFFFFFFFFFFFFFFFFFFFFFFFFFFFFF AND DUP2 MSTORE PUSH1 0x20 ADD PUSH2 0x1388 DUP2 MSTORE PUSH1 0x20 ADD PUSH1 0x1 ISZERO ISZERO DUP2 MSTORE POP SWAP1 POP PUSH1 0x4 DUP2 SWAP1 DUP1 PUSH1 0x1 DUP2 SLOAD ADD DUP1 DUP3 SSTORE DUP1 SWAP2 POP POP PUSH1 0x1 SWAP1 SUB SWAP1 PUSH1 0x0 MSTORE PUSH1 0x20 PUSH1 0x0 KECCAK256 SWAP1 PUSH1 0x5 MUL ADD PUSH1 0x0 SWAP1 SWAP2 SWAP1 SWAP2 SWAP1 SWAP2 POP PUSH1 0x0 DUP3 ADD MLOAD DUP2 PUSH1 0x0 ADD SSTORE PUSH1 0x20 DUP3 ADD MLOAD DUP2 PUSH1 0x1 ADD PUSH1 0x0 PUSH2 0x100 EXP DUP2 SLOAD DUP2 PUSH20 0xFFFFFFFFFFFFFFFFFFFFFFFFFFFFFFFFFFFFFFFF MUL NOT AND SWAP1 DUP4 PUSH20 0xFFFFFFFFFFFFFFFFFFFFFFFFFFFFFFFFFFFFFFFF AND MUL OR SWAP1 SSTORE POP PUSH1 0x40 DUP3 ADD MLOAD DUP2 PUSH1 0x2 ADD PUSH1 0x0 PUSH2 0x100 EXP DUP2 SLOAD DUP2 PUSH20 0xFFFFFFFFFFFFFFFFFFFFFFFFFFFFFFFFFFFFFFFF MUL NOT AND SWAP1 DUP4 PUSH20 0xFFFFFFFFFFFFFFFFFFFFFFFFFFFFFFFFFFFFFFFF AND MUL OR SWAP1 SSTORE POP PUSH1 0x60 DUP3 ADD MLOAD DUP2 PUSH1 0x3 ADD SSTORE PUSH1 0x80 DUP3 ADD MLOAD DUP2 PUSH1 0x4 ADD PUSH1 0x0 PUSH2 0x100 EXP DUP2 SLOAD DUP2 PUSH1 0xFF MUL NOT AND SWAP1 DUP4 ISZERO ISZERO MUL OR SWAP1 SSTORE POP POP POP PUSH3 0x1E5 PUSH3 0x1EC PUSH1 0x20 SHL PUSH1 0x20 SHR JUMP JUMPDEST POP PUSH3 0x135A JUMP JUMPDEST PUSH1 0x1 PUSH1 0x0 SWAP1 SLOAD SWAP1 PUSH2 0x100 EXP SWAP1 DIV PUSH20 0xFFFFFFFFFFFFFFFFFFFFFFFFFFFFFFFFFFFFFFFF AND PUSH20 0xFFFFFFFFFFFFFFFFFFFFFFFFFFFFFFFFFFFFFFFF AND CALLER PUSH20 0xFFFFFFFFFFFFFFFFFFFFFFFFFFFFFFFFFFFFFFFF AND EQ PUSH3 0x27F JUMPI PUSH1 0x40 MLOAD PUSH32 0x8C379A000000000000000000000000000000000000000000000000000000000 DUP2 MSTORE PUSH1 0x4 ADD PUSH3 0x276 SWAP1 PUSH3 0x94D JUMP JUMPDEST PUSH1 0x40 MLOAD DUP1 SWAP2 SUB SWAP1 REVERT JUMPDEST PUSH1 0x0 PUSH1 0x4 DUP1 SLOAD SWAP1 POP PUSH8 0xFFFFFFFFFFFFFFFF DUP2 GT ISZERO PUSH3 0x2A3 JUMPI PUSH3 0x2A2 PUSH3 0x96F JUMP JUMPDEST JUMPDEST PUSH1 0x40 MLOAD SWAP1 DUP1 DUP3 MSTORE DUP1 PUSH1 0x20 MUL PUSH1 0x20 ADD DUP3 ADD PUSH1 0x40 MSTORE DUP1 ISZERO PUSH3 0x2D8 JUMPI DUP2 PUSH1 0x20 ADD JUMPDEST PUSH1 0x60 DUP2 MSTORE PUSH1 0x20 ADD SWAP1 PUSH1 0x1 SWAP1 SUB SWAP1 DUP2 PUSH3 0x2C2 JUMPI SWAP1 POP JUMPDEST POP SWAP1 POP PUSH1 0x2 SLOAD PUSH1 0x40 MLOAD PUSH1 0x20 ADD PUSH3 0x2F0 SWAP2 SWAP1 PUSH3 0xA78 JUMP JUMPDEST PUSH1 0x40 MLOAD PUSH1 0x20 DUP2 DUP4 SUB SUB DUP2 MSTORE SWAP1 PUSH1 0x40 MSTORE DUP2 PUSH1 0x0 DUP2 MLOAD DUP2 LT PUSH3 0x316 JUMPI PUSH3 0x315 PUSH3 0xAAF JUMP JUMPDEST JUMPDEST PUSH1 0x20 MUL PUSH1 0x20 ADD ADD DUP2 SWAP1 MSTORE POP PUSH3 0x334 PUSH1 0x3 SLOAD PUSH3 0x68E PUSH1 0x20 SHL PUSH1 0x20 SHR JUMP JUMPDEST PUSH1 0x40 MLOAD PUSH1 0x20 ADD PUSH3 0x346 SWAP2 SWAP1 PUSH3 0xBEC JUMP JUMPDEST PUSH1 0x40 MLOAD PUSH1 0x20 DUP2 DUP4 SUB SUB DUP2 MSTORE SWAP1 PUSH1 0x40 MSTORE DUP2 PUSH1 0x1 DUP2 MLOAD DUP2 LT PUSH3 0x36C JUMPI PUSH3 0x36B PUSH3 0xAAF JUMP JUMPDEST JUMPDEST PUSH1 0x20 MUL PUSH1 0x20 ADD ADD DUP2 SWAP1 MSTORE POP PUSH3 0x388 TIMESTAMP PUSH3 0x68E PUSH1 0x20 SHL PUSH1 0x20 SHR JUMP JUMPDEST PUSH1 0x40 MLOAD PUSH1 0x20 ADD PUSH3 0x39A SWAP2 SWAP1 PUSH3 0xC6F JUMP JUMPDEST PUSH1 0x40 MLOAD PUSH1 0x20 DUP2 DUP4 SUB SUB DUP2 MSTORE SWAP1 PUSH1 0x40 MSTORE DUP2 PUSH1 0x2 DUP2 MLOAD DUP2 LT PUSH3 0x3C0 JUMPI PUSH3 0x3BF PUSH3 0xAAF JUMP JUMPDEST JUMPDEST PUSH1 0x20 MUL PUSH1 0x20 ADD ADD DUP2 SWAP1 MSTORE POP PUSH1 0x0 PUSH1 0x3 SWAP1 POP PUSH1 0x0 JUMPDEST PUSH1 0x4 DUP1 SLOAD SWAP1 POP DUP2 LT ISZERO PUSH3 0x59A JUMPI PUSH1 0x1 ISZERO ISZERO PUSH1 0x4 DUP3 DUP2 SLOAD DUP2 LT PUSH3 0x3FD JUMPI PUSH3 0x3FC PUSH3 0xAAF JUMP JUMPDEST JUMPDEST SWAP1 PUSH1 0x0 MSTORE PUSH1 0x20 PUSH1 0x0 KECCAK256 SWAP1 PUSH1 0x5 MUL ADD PUSH1 0x4 ADD PUSH1 0x0 SWAP1 SLOAD SWAP1 PUSH2 0x100 EXP SWAP1 DIV PUSH1 0xFF AND ISZERO ISZERO SUB PUSH3 0x584 JUMPI PUSH1 0x0 PUSH3 0x45F PUSH1 0x4 DUP4 DUP2 SLOAD DUP2 LT PUSH3 0x441 JUMPI PUSH3 0x440 PUSH3 0xAAF JUMP JUMPDEST JUMPDEST SWAP1 PUSH1 0x0 MSTORE PUSH1 0x20 PUSH1 0x0 KECCAK256 SWAP1 PUSH1 0x5 MUL ADD PUSH1 0x0 ADD SLOAD PUSH3 0x68E PUSH1 0x20 SHL PUSH1 0x20 SHR JUMP JUMPDEST PUSH1 0x4 DUP4 DUP2 SLOAD DUP2 LT PUSH3 0x476 JUMPI PUSH3 0x475 PUSH3 0xAAF JUMP JUMPDEST JUMPDEST SWAP1 PUSH1 0x0 MSTORE PUSH1 0x20 PUSH1 0x0 KECCAK256 SWAP1 PUSH1 0x5 MUL ADD PUSH1 0x1 ADD PUSH1 0x0 SWAP1 SLOAD SWAP1 PUSH2 0x100 EXP SWAP1 DIV PUSH20 0xFFFFFFFFFFFFFFFFFFFFFFFFFFFFFFFFFFFFFFFF AND PUSH1 0x4 DUP5 DUP2 SLOAD DUP2 LT PUSH3 0x4BF JUMPI PUSH3 0x4BE PUSH3 0xAAF JUMP JUMPDEST JUMPDEST SWAP1 PUSH1 0x0 MSTORE PUSH1 0x20 PUSH1 0x0 KECCAK256 SWAP1 PUSH1 0x5 MUL ADD PUSH1 0x2 ADD PUSH1 0x0 SWAP1 SLOAD SWAP1 PUSH2 0x100 EXP SWAP1 DIV PUSH20 0xFFFFFFFFFFFFFFFFFFFFFFFFFFFFFFFFFFFFFFFF AND PUSH3 0x52A PUSH1 0x4 DUP7 DUP2 SLOAD DUP2 LT PUSH3 0x50C JUMPI PUSH3 0x50B PUSH3 0xAAF JUMP JUMPDEST JUMPDEST SWAP1 PUSH1 0x0 MSTORE PUSH1 0x20 PUSH1 0x0 KECCAK256 SWAP1 PUSH1 0x5 MUL ADD PUSH1 0x3 ADD SLOAD PUSH3 0x68E PUSH1 0x20 SHL PUSH1 0x20 SHR JUMP JUMPDEST PUSH1 0x40 MLOAD PUSH1 0x20 ADD PUSH3 0x53F SWAP5 SWAP4 SWAP3 SWAP2 SWAP1 PUSH3 0xF56 JUMP JUMPDEST PUSH1 0x40 MLOAD PUSH1 0x20 DUP2 DUP4 SUB SUB DUP2 MSTORE SWAP1 PUSH1 0x40 MSTORE SWAP1 POP DUP1 DUP5 DUP5 DUP2 MLOAD DUP2 LT PUSH3 0x567 JUMPI PUSH3 0x566 PUSH3 0xAAF JUMP JUMPDEST JUMPDEST PUSH1 0x20 MUL PUSH1 0x20 ADD ADD DUP2 SWAP1 MSTORE POP DUP3 DUP1 PUSH3 0x57F SWAP1 PUSH3 0x105F JUMP JUMPDEST SWAP4 POP POP POP JUMPDEST DUP1 DUP1 PUSH3 0x591 SWAP1 PUSH3 0x105F JUMP JUMPDEST SWAP2 POP POP PUSH3 0x3D4 JUMP JUMPDEST POP PUSH1 0x0 PUSH3 0x5E4 DUP4 PUSH1 0x40 MLOAD DUP1 PUSH1 0x40 ADD PUSH1 0x40 MSTORE DUP1 PUSH1 0x1 DUP2 MSTORE PUSH1 0x20 ADD PUSH32 0x2C00000000000000000000000000000000000000000000000000000000000000 DUP2 MSTORE POP PUSH3 0x807 PUSH1 0x20 SHL PUSH1 0x20 SHR JUMP JUMPDEST PUSH1 0x40 MLOAD PUSH1 0x20 ADD PUSH3 0x5F6 SWAP2 SWAP1 PUSH3 0x114C JUMP JUMPDEST PUSH1 0x40 MLOAD PUSH1 0x20 DUP2 DUP4 SUB SUB DUP2 MSTORE SWAP1 PUSH1 0x40 MSTORE SWAP1 POP PUSH32 0x59001E29D8BB7C2E7E5985436EA2F292294E757E63A167AF3980FDA2528D6106 DUP2 PUSH1 0x40 MLOAD PUSH3 0x638 SWAP2 SWAP1 PUSH3 0x11D1 JUMP JUMPDEST PUSH1 0x40 MLOAD DUP1 SWAP2 SUB SWAP1 LOG1 DUP1 PUSH1 0x40 MLOAD PUSH1 0x20 ADD PUSH3 0x653 SWAP2 SWAP1 PUSH3 0x11F5 JUMP JUMPDEST PUSH1 0x40 MLOAD PUSH1 0x20 DUP2 DUP4 SUB SUB DUP2 MSTORE SWAP1 PUSH1 0x40 MSTORE DUP1 MLOAD SWAP1 PUSH1 0x20 ADD KECCAK256 PUSH1 0x2 DUP2 SWAP1 SSTORE POP PUSH1 0x3 PUSH1 0x0 DUP2 SLOAD DUP1 SWAP3 SWAP2 SWAP1 PUSH3 0x684 SWAP1 PUSH3 0x105F JUMP JUMPDEST SWAP2 SWAP1 POP SSTORE POP POP POP POP JUMP JUMPDEST PUSH1 0x60 PUSH1 0x0 DUP3 SUB PUSH3 0x6D7 JUMPI PUSH1 0x40 MLOAD DUP1 PUSH1 0x40 ADD PUSH1 0x40 MSTORE DUP1 PUSH1 0x1 DUP2 MSTORE PUSH1 0x20 ADD PUSH32 0x3000000000000000000000000000000000000000000000000000000000000000 DUP2 MSTORE POP SWAP1 POP PUSH3 0x802 JUMP JUMPDEST PUSH1 0x0 DUP3 SWAP1 POP PUSH1 0x0 JUMPDEST PUSH1 0x0 DUP3 EQ PUSH3 0x70F JUMPI DUP1 DUP1 PUSH3 0x6F5 SWAP1 PUSH3 0x105F JUMP JUMPDEST SWAP2 POP POP PUSH1 0xA DUP3 PUSH3 0x707 SWAP2 SWAP1 PUSH3 0x123D JUMP JUMPDEST SWAP2 POP PUSH3 0x6DF JUMP JUMPDEST PUSH1 0x0 DUP2 PUSH8 0xFFFFFFFFFFFFFFFF DUP2 GT ISZERO PUSH3 0x72E JUMPI PUSH3 0x72D PUSH3 0x96F JUMP JUMPDEST JUMPDEST PUSH1 0x40 MLOAD SWAP1 DUP1 DUP3 MSTORE DUP1 PUSH1 0x1F ADD PUSH1 0x1F NOT AND PUSH1 0x20 ADD DUP3 ADD PUSH1 0x40 MSTORE DUP1 ISZERO PUSH3 0x761 JUMPI DUP2 PUSH1 0x20 ADD PUSH1 0x1 DUP3 MUL DUP1 CALLDATASIZE DUP4 CALLDATACOPY DUP1 DUP3 ADD SWAP2 POP POP SWAP1 POP JUMPDEST POP SWAP1 POP JUMPDEST PUSH1 0x0 DUP6 EQ PUSH3 0x7FB JUMPI PUSH1 0x1 DUP3 PUSH3 0x77D SWAP2 SWAP1 PUSH3 0x1275 JUMP JUMPDEST SWAP2 POP PUSH1 0xA DUP6 PUSH3 0x78E SWAP2 SWAP1 PUSH3 0x12B0 JUMP JUMPDEST PUSH1 0x30 PUSH3 0x79C SWAP2 SWAP1 PUSH3 0x12E8 JUMP JUMPDEST PUSH1 0xF8 SHL DUP2 DUP4 DUP2 MLOAD DUP2 LT PUSH3 0x7B5 JUMPI PUSH3 0x7B4 PUSH3 0xAAF JUMP JUMPDEST JUMPDEST PUSH1 0x20 ADD ADD SWAP1 PUSH31 0xFFFFFFFFFFFFFFFFFFFFFFFFFFFFFFFFFFFFFFFFFFFFFFFFFFFFFFFFFFFFFF NOT AND SWAP1 DUP2 PUSH1 0x0 BYTE SWAP1 MSTORE8 POP PUSH1 0xA DUP6 PUSH3 0x7F3 SWAP2 SWAP1 PUSH3 0x123D JUMP JUMPDEST SWAP5 POP PUSH3 0x765 JUMP JUMPDEST DUP1 SWAP4 POP POP POP POP JUMPDEST SWAP2 SWAP1 POP JUMP JUMPDEST PUSH1 0x60 PUSH1 0x0 DUP4 MLOAD SUB PUSH3 0x82B JUMPI PUSH1 0x40 MLOAD DUP1 PUSH1 0x20 ADD PUSH1 0x40 MSTORE DUP1 PUSH1 0x0 DUP2 MSTORE POP SWAP1 POP PUSH3 0x8C0 JUMP JUMPDEST PUSH1 0x0 DUP4 PUSH1 0x0 DUP2 MLOAD DUP2 LT PUSH3 0x844 JUMPI PUSH3 0x843 PUSH3 0xAAF JUMP JUMPDEST JUMPDEST PUSH1 0x20 MUL PUSH1 0x20 ADD ADD MLOAD SWAP1 POP PUSH1 0x0 PUSH1 0x1 SWAP1 POP JUMPDEST DUP5 MLOAD DUP2 LT ISZERO PUSH3 0x8BA JUMPI DUP2 DUP5 DUP7 DUP4 DUP2 MLOAD DUP2 LT PUSH3 0x877 JUMPI PUSH3 0x876 PUSH3 0xAAF JUMP JUMPDEST JUMPDEST PUSH1 0x20 MUL PUSH1 0x20 ADD ADD MLOAD PUSH1 0x40 MLOAD PUSH1 0x20 ADD PUSH3 0x893 SWAP4 SWAP3 SWAP2 SWAP1 PUSH3 0x1323 JUMP JUMPDEST PUSH1 0x40 MLOAD PUSH1 0x20 DUP2 DUP4 SUB SUB DUP2 MSTORE SWAP1 PUSH1 0x40 MSTORE SWAP2 POP DUP1 DUP1 PUSH3 0x8B1 SWAP1 PUSH3 0x105F JUMP JUMPDEST SWAP2 POP POP PUSH3 0x855 JUMP JUMPDEST POP DUP1 SWAP2 POP POP JUMPDEST SWAP3 SWAP2 POP POP JUMP JUMPDEST PUSH1 0x0 DUP3 DUP3 MSTORE PUSH1 0x20 DUP3 ADD SWAP1 POP SWAP3 SWAP2 POP POP JUMP JUMPDEST PUSH32 0x4F6E6C7920746865206F776E65722063616E2063616C6C20746869732066756E PUSH1 0x0 DUP3 ADD MSTORE PUSH32 0x6374696F6E000000000000000000000000000000000000000000000000000000 PUSH1 0x20 DUP3 ADD MSTORE POP JUMP JUMPDEST PUSH1 0x0 PUSH3 0x935 PUSH1 0x25 DUP4 PUSH3 0x8C6 JUMP JUMPDEST SWAP2 POP PUSH3 0x942 DUP3 PUSH3 0x8D7 JUMP JUMPDEST PUSH1 0x40 DUP3 ADD SWAP1 POP SWAP2 SWAP1 POP JUMP JUMPDEST PUSH1 0x0 PUSH1 0x20 DUP3 ADD SWAP1 POP DUP2 DUP2 SUB PUSH1 0x0 DUP4 ADD MSTORE PUSH3 0x968 DUP2 PUSH3 0x926 JUMP JUMPDEST SWAP1 POP SWAP2 SWAP1 POP JUMP JUMPDEST PUSH32 0x4E487B7100000000000000000000000000000000000000000000000000000000 PUSH1 0x0 MSTORE PUSH1 0x41 PUSH1 0x4 MSTORE PUSH1 0x24 PUSH1 0x0 REVERT JUMPDEST PUSH1 0x0 DUP2 SWAP1 POP SWAP3 SWAP2 POP POP JUMP JUMPDEST PUSH32 0x7B2270726576696F75735F68617368223A220000000000000000000000000000 PUSH1 0x0 DUP3 ADD MSTORE POP JUMP JUMPDEST PUSH1 0x0 PUSH3 0x9E1 PUSH1 0x12 DUP4 PUSH3 0x99E JUMP JUMPDEST SWAP2 POP PUSH3 0x9EE DUP3 PUSH3 0x9A9 JUMP JUMPDEST PUSH1 0x12 DUP3 ADD SWAP1 POP SWAP2 SWAP1 POP JUMP JUMPDEST PUSH1 0x0 DUP2 SWAP1 POP SWAP2 SWAP1 POP JUMP JUMPDEST PUSH1 0x0 DUP2 SWAP1 POP SWAP2 SWAP1 POP JUMP JUMPDEST PUSH3 0xA22 PUSH3 0xA1C DUP3 PUSH3 0x9F9 JUMP JUMPDEST PUSH3 0xA03 JUMP JUMPDEST DUP3 MSTORE POP POP JUMP JUMPDEST PUSH32 0x222C000000000000000000000000000000000000000000000000000000000000 PUSH1 0x0 DUP3 ADD MSTORE POP JUMP JUMPDEST PUSH1 0x0 PUSH3 0xA60 PUSH1 0x2 DUP4 PUSH3 0x99E JUMP JUMPDEST SWAP2 POP PUSH3 0xA6D DUP3 PUSH3 0xA28 JUMP JUMPDEST PUSH1 0x2 DUP3 ADD SWAP1 POP SWAP2 SWAP1 POP JUMP JUMPDEST PUSH1 0x0 PUSH3 0xA85 DUP3 PUSH3 0x9D2 JUMP JUMPDEST SWAP2 POP PUSH3 0xA93 DUP3 DUP5 PUSH3 0xA0D JUMP JUMPDEST PUSH1 0x20 DUP3 ADD SWAP2 POP PUSH3 0xAA4 DUP3 PUSH3 0xA51 JUMP JUMPDEST SWAP2 POP DUP2 SWAP1 POP SWAP3 SWAP2 POP POP JUMP JUMPDEST PUSH32 0x4E487B7100000000000000000000000000000000000000000000000000000000 PUSH1 0x0 MSTORE PUSH1 0x32 PUSH1 0x4 MSTORE PUSH1 0x24 PUSH1 0x0 REVERT JUMPDEST PUSH32 0x22626C6F636B5F6E756D626572223A0000000000000000000000000000000000 PUSH1 0x0 DUP3 ADD MSTORE POP JUMP JUMPDEST PUSH1 0x0 PUSH3 0xB16 PUSH1 0xF DUP4 PUSH3 0x99E JUMP JUMPDEST SWAP2 POP PUSH3 0xB23 DUP3 PUSH3 0xADE JUMP JUMPDEST PUSH1 0xF DUP3 ADD SWAP1 POP SWAP2 SWAP1 POP JUMP JUMPDEST PUSH1 0x0 DUP2 MLOAD SWAP1 POP SWAP2 SWAP1 POP JUMP JUMPDEST PUSH1 0x0 JUMPDEST DUP4 DUP2 LT ISZERO PUSH3 0xB59 JUMPI DUP1 DUP3 ADD MLOAD DUP2 DUP5 ADD MSTORE PUSH1 0x20 DUP2 ADD SWAP1 POP PUSH3 0xB3C JUMP JUMPDEST PUSH1 0x0 DUP5 DUP5 ADD MSTORE POP POP POP POP JUMP JUMPDEST PUSH1 0x0 PUSH3 0xB72 DUP3 PUSH3 0xB2E JUMP JUMPDEST PUSH3 0xB7E DUP2 DUP6 PUSH3 0x99E JUMP JUMPDEST SWAP4 POP PUSH3 0xB90 DUP2 DUP6 PUSH1 0x20 DUP7 ADD PUSH3 0xB39 JUMP JUMPDEST DUP1 DUP5 ADD SWAP2 POP POP SWAP3 SWAP2 POP POP JUMP JUMPDEST PUSH32 0x2C00000000000000000000000000000000000000000000000000000000000000 PUSH1 0x0 DUP3 ADD MSTORE POP JUMP JUMPDEST PUSH1 0x0 PUSH3 0xBD4 PUSH1 0x1 DUP4 PUSH3 0x99E JUMP JUMPDEST SWAP2 POP PUSH3 0xBE1 DUP3 PUSH3 0xB9C JUMP JUMPDEST PUSH1 0x1 DUP3 ADD SWAP1 POP SWAP2 SWAP1 POP JUMP JUMPDEST PUSH1 0x0 PUSH3 0xBF9 DUP3 PUSH3 0xB07 JUMP JUMPDEST SWAP2 POP PUSH3 0xC07 DUP3 DUP5 PUSH3 0xB65 JUMP JUMPDEST SWAP2 POP PUSH3 0xC14 DUP3 PUSH3 0xBC5 JUMP JUMPDEST SWAP2 POP DUP2 SWAP1 POP SWAP3 SWAP2 POP POP JUMP JUMPDEST PUSH32 0x2274696D657374616D70223A0000000000000000000000000000000000000000 PUSH1 0x0 DUP3 ADD MSTORE POP JUMP JUMPDEST PUSH1 0x0 PUSH3 0xC57 PUSH1 0xC DUP4 PUSH3 0x99E JUMP JUMPDEST SWAP2 POP PUSH3 0xC64 DUP3 PUSH3 0xC1F JUMP JUMPDEST PUSH1 0xC DUP3 ADD SWAP1 POP SWAP2 SWAP1 POP JUMP JUMPDEST PUSH1 0x0 PUSH3 0xC7C DUP3 PUSH3 0xC48 JUMP JUMPDEST SWAP2 POP PUSH3 0xC8A DUP3 DUP5 PUSH3 0xB65 JUMP JUMPDEST SWAP2 POP PUSH3 0xC97 DUP3 PUSH3 0xBC5 JUMP JUMPDEST SWAP2 POP DUP2 SWAP1 POP SWAP3 SWAP2 POP POP JUMP JUMPDEST PUSH32 0x7B00000000000000000000000000000000000000000000000000000000000000 PUSH1 0x0 DUP3 ADD MSTORE POP JUMP JUMPDEST PUSH1 0x0 PUSH3 0xCDA PUSH1 0x1 DUP4 PUSH3 0x99E JUMP JUMPDEST SWAP2 POP PUSH3 0xCE7 DUP3 PUSH3 0xCA2 JUMP JUMPDEST PUSH1 0x1 DUP3 ADD SWAP1 POP SWAP2 SWAP1 POP JUMP JUMPDEST PUSH32 0x226E756D626572223A2200000000000000000000000000000000000000000000 PUSH1 0x0 DUP3 ADD MSTORE POP JUMP JUMPDEST PUSH1 0x0 PUSH3 0xD2A PUSH1 0xA DUP4 PUSH3 0x99E JUMP JUMPDEST SWAP2 POP PUSH3 0xD37 DUP3 PUSH3 0xCF2 JUMP JUMPDEST PUSH1 0xA DUP3 ADD SWAP1 POP SWAP2 SWAP1 POP JUMP JUMPDEST PUSH32 0x2273656E646572223A2200000000000000000000000000000000000000000000 PUSH1 0x0 DUP3 ADD MSTORE POP JUMP JUMPDEST PUSH1 0x0 PUSH3 0xD7A PUSH1 0xA DUP4 PUSH3 0x99E JUMP JUMPDEST SWAP2 POP PUSH3 0xD87 DUP3 PUSH3 0xD42 JUMP JUMPDEST PUSH1 0xA DUP3 ADD SWAP1 POP SWAP2 SWAP1 POP JUMP JUMPDEST PUSH1 0x0 PUSH20 0xFFFFFFFFFFFFFFFFFFFFFFFFFFFFFFFFFFFFFFFF DUP3 AND SWAP1 POP SWAP2 SWAP1 POP JUMP JUMPDEST PUSH1 0x0 PUSH3 0xDBF DUP3 PUSH3 0xD92 JUMP JUMPDEST SWAP1 POP SWAP2 SWAP1 POP JUMP JUMPDEST PUSH1 0x0 DUP2 PUSH1 0x60 SHL SWAP1 POP SWAP2 SWAP1 POP JUMP JUMPDEST PUSH1 0x0 PUSH3 0xDE0 DUP3 PUSH3 0xDC6 JUMP JUMPDEST SWAP1 POP SWAP2 SWAP1 POP JUMP JUMPDEST PUSH1 0x0 PUSH3 0xDF4 DUP3 PUSH3 0xDD3 JUMP JUMPDEST SWAP1 POP SWAP2 SWAP1 POP JUMP JUMPDEST PUSH3 0xE10 PUSH3 0xE0A DUP3 PUSH3 0xDB2 JUMP JUMPDEST PUSH3 0xDE7 JUMP JUMPDEST DUP3 MSTORE POP POP JUMP JUMPDEST PUSH32 0x227265636569766572223A220000000000000000000000000000000000000000 PUSH1 0x0 DUP3 ADD MSTORE POP JUMP JUMPDEST PUSH1 0x0 PUSH3 0xE4E PUSH1 0xC DUP4 PUSH3 0x99E JUMP JUMPDEST SWAP2 POP PUSH3 0xE5B DUP3 PUSH3 0xE16 JUMP JUMPDEST PUSH1 0xC DUP3 ADD SWAP1 POP SWAP2 SWAP1 POP JUMP JUMPDEST PUSH32 0x22616D6F756E74223A2200000000000000000000000000000000000000000000 PUSH1 0x0 DUP3 ADD MSTORE POP JUMP JUMPDEST PUSH1 0x0 PUSH3 0xE9E PUSH1 0xA DUP4 PUSH3 0x99E JUMP JUMPDEST SWAP2 POP PUSH3 0xEAB DUP3 PUSH3 0xE66 JUMP JUMPDEST PUSH1 0xA DUP3 ADD SWAP1 POP SWAP2 SWAP1 POP JUMP JUMPDEST PUSH32 0x2200000000000000000000000000000000000000000000000000000000000000 PUSH1 0x0 DUP3 ADD MSTORE POP JUMP JUMPDEST PUSH1 0x0 PUSH3 0xEEE PUSH1 0x1 DUP4 PUSH3 0x99E JUMP JUMPDEST SWAP2 POP PUSH3 0xEFB DUP3 PUSH3 0xEB6 JUMP JUMPDEST PUSH1 0x1 DUP3 ADD SWAP1 POP SWAP2 SWAP1 POP JUMP JUMPDEST PUSH32 0x7D00000000000000000000000000000000000000000000000000000000000000 PUSH1 0x0 DUP3 ADD MSTORE POP JUMP JUMPDEST PUSH1 0x0 PUSH3 0xF3E PUSH1 0x1 DUP4 PUSH3 0x99E JUMP JUMPDEST SWAP2 POP PUSH3 0xF4B DUP3 PUSH3 0xF06 JUMP JUMPDEST PUSH1 0x1 DUP3 ADD SWAP1 POP SWAP2 SWAP1 POP JUMP JUMPDEST PUSH1 0x0 PUSH3 0xF63 DUP3 PUSH3 0xCCB JUMP JUMPDEST SWAP2 POP PUSH3 0xF70 DUP3 PUSH3 0xD1B JUMP JUMPDEST SWAP2 POP PUSH3 0xF7E DUP3 DUP8 PUSH3 0xB65 JUMP JUMPDEST SWAP2 POP PUSH3 0xF8B DUP3 PUSH3 0xA51 JUMP JUMPDEST SWAP2 POP PUSH3 0xF98 DUP3 PUSH3 0xD6B JUMP JUMPDEST SWAP2 POP PUSH3 0xFA6 DUP3 DUP7 PUSH3 0xDFB JUMP JUMPDEST PUSH1 0x14 DUP3 ADD SWAP2 POP PUSH3 0xFB7 DUP3 PUSH3 0xA51 JUMP JUMPDEST SWAP2 POP PUSH3 0xFC4 DUP3 PUSH3 0xE3F JUMP JUMPDEST SWAP2 POP PUSH3 0xFD2 DUP3 DUP6 PUSH3 0xDFB JUMP JUMPDEST PUSH1 0x14 DUP3 ADD SWAP2 POP PUSH3 0xFE3 DUP3 PUSH3 0xA51 JUMP JUMPDEST SWAP2 POP PUSH3 0xFF0 DUP3 PUSH3 0xE8F JUMP JUMPDEST SWAP2 POP PUSH3 0xFFE DUP3 DUP5 PUSH3 0xB65 JUMP JUMPDEST SWAP2 POP PUSH3 0x100B DUP3 PUSH3 0xEDF JUMP JUMPDEST SWAP2 POP PUSH3 0x1018 DUP3 PUSH3 0xF2F JUMP JUMPDEST SWAP2 POP DUP2 SWAP1 POP SWAP6 SWAP5 POP POP POP POP POP JUMP JUMPDEST PUSH32 0x4E487B7100000000000000000000000000000000000000000000000000000000 PUSH1 0x0 MSTORE PUSH1 0x11 PUSH1 0x4 MSTORE PUSH1 0x24 PUSH1 0x0 REVERT JUMPDEST PUSH1 0x0 DUP2 SWAP1 POP SWAP2 SWAP1 POP JUMP JUMPDEST PUSH1 0x0 PUSH3 0x106C DUP3 PUSH3 0x1055 JUMP JUMPDEST SWAP2 POP PUSH32 0xFFFFFFFFFFFFFFFFFFFFFFFFFFFFFFFFFFFFFFFFFFFFFFFFFFFFFFFFFFFFFFFF DUP3 SUB PUSH3 0x10A1 JUMPI PUSH3 0x10A0 PUSH3 0x1026 JUMP JUMPDEST JUMPDEST PUSH1 0x1 DUP3 ADD SWAP1 POP SWAP2 SWAP1 POP JUMP JUMPDEST PUSH32 0x5B00000000000000000000000000000000000000000000000000000000000000 PUSH1 0x0 DUP3 ADD MSTORE POP JUMP JUMPDEST PUSH1 0x0 PUSH3 0x10E4 PUSH1 0x1 DUP4 PUSH3 0x99E JUMP JUMPDEST SWAP2 POP PUSH3 0x10F1 DUP3 PUSH3 0x10AC JUMP JUMPDEST PUSH1 0x1 DUP3 ADD SWAP1 POP SWAP2 SWAP1 POP JUMP JUMPDEST PUSH32 0x5D00000000000000000000000000000000000000000000000000000000000000 PUSH1 0x0 DUP3 ADD MSTORE POP JUMP JUMPDEST PUSH1 0x0 PUSH3 0x1134 PUSH1 0x1 DUP4 PUSH3 0x99E JUMP JUMPDEST SWAP2 POP PUSH3 0x1141 DUP3 PUSH3 0x10FC JUMP JUMPDEST PUSH1 0x1 DUP3 ADD SWAP1 POP SWAP2 SWAP1 POP JUMP JUMPDEST PUSH1 0x0 PUSH3 0x1159 DUP3 PUSH3 0x10D5 JUMP JUMPDEST SWAP2 POP PUSH3 0x1167 DUP3 DUP5 PUSH3 0xB65 JUMP JUMPDEST SWAP2 POP PUSH3 0x1174 DUP3 PUSH3 0x1125 JUMP JUMPDEST SWAP2 POP DUP2 SWAP1 POP SWAP3 SWAP2 POP POP JUMP JUMPDEST PUSH1 0x0 PUSH1 0x1F NOT PUSH1 0x1F DUP4 ADD AND SWAP1 POP SWAP2 SWAP1 POP JUMP JUMPDEST PUSH1 0x0 PUSH3 0x119D DUP3 PUSH3 0xB2E JUMP JUMPDEST PUSH3 0x11A9 DUP2 DUP6 PUSH3 0x8C6 JUMP JUMPDEST SWAP4 POP PUSH3 0x11BB DUP2 DUP6 PUSH1 0x20 DUP7 ADD PUSH3 0xB39 JUMP JUMPDEST PUSH3 0x11C6 DUP2 PUSH3 0x117F JUMP JUMPDEST DUP5 ADD SWAP2 POP POP SWAP3 SWAP2 POP POP JUMP JUMPDEST PUSH1 0x0 PUSH1 0x20 DUP3 ADD SWAP1 POP DUP2 DUP2 SUB PUSH1 0x0 DUP4 ADD MSTORE PUSH3 0x11ED DUP2 DUP5 PUSH3 0x1190 JUMP JUMPDEST SWAP1 POP SWAP3 SWAP2 POP POP JUMP JUMPDEST PUSH1 0x0 PUSH3 0x1203 DUP3 DUP5 PUSH3 0xB65 JUMP JUMPDEST SWAP2 POP DUP2 SWAP1 POP SWAP3 SWAP2 POP POP JUMP JUMPDEST PUSH32 0x4E487B7100000000000000000000000000000000000000000000000000000000 PUSH1 0x0 MSTORE PUSH1 0x12 PUSH1 0x4 MSTORE PUSH1 0x24 PUSH1 0x0 REVERT JUMPDEST PUSH1 0x0 PUSH3 0x124A DUP3 PUSH3 0x1055 JUMP JUMPDEST SWAP2 POP PUSH3 0x1257 DUP4 PUSH3 0x1055 JUMP JUMPDEST SWAP3 POP DUP3 PUSH3 0x126A JUMPI PUSH3 0x1269 PUSH3 0x120E JUMP JUMPDEST JUMPDEST DUP3 DUP3 DIV SWAP1 POP SWAP3 SWAP2 POP POP JUMP JUMPDEST PUSH1 0x0 PUSH3 0x1282 DUP3 PUSH3 0x1055 JUMP JUMPDEST SWAP2 POP PUSH3 0x128F DUP4 PUSH3 0x1055 JUMP JUMPDEST SWAP3 POP DUP3 DUP3 SUB SWAP1 POP DUP2 DUP2 GT ISZERO PUSH3 0x12AA JUMPI PUSH3 0x12A9 PUSH3 0x1026 JUMP JUMPDEST JUMPDEST SWAP3 SWAP2 POP POP JUMP JUMPDEST PUSH1 0x0 PUSH3 0x12BD DUP3 PUSH3 0x1055 JUMP JUMPDEST SWAP2 POP PUSH3 0x12CA DUP4 PUSH3 0x1055 JUMP JUMPDEST SWAP3 POP DUP3 PUSH3 0x12DD JUMPI PUSH3 0x12DC PUSH3 0x120E JUMP JUMPDEST JUMPDEST DUP3 DUP3 MOD SWAP1 POP SWAP3 SWAP2 POP POP JUMP JUMPDEST PUSH1 0x0 PUSH3 0x12F5 DUP3 PUSH3 0x1055 JUMP JUMPDEST SWAP2 POP PUSH3 0x1302 DUP4 PUSH3 0x1055 JUMP JUMPDEST SWAP3 POP DUP3 DUP3 ADD SWAP1 POP DUP1 DUP3 GT ISZERO PUSH3 0x131D JUMPI PUSH3 0x131C PUSH3 0x1026 JUMP JUMPDEST JUMPDEST SWAP3 SWAP2 POP POP JUMP JUMPDEST PUSH1 0x0 PUSH3 0x1331 DUP3 DUP7 PUSH3 0xB65 JUMP JUMPDEST SWAP2 POP PUSH3 0x133F DUP3 DUP6 PUSH3 0xB65 JUMP JUMPDEST SWAP2 POP PUSH3 0x134D DUP3 DUP5 PUSH3 0xB65 JUMP JUMPDEST SWAP2 POP DUP2 SWAP1 POP SWAP5 SWAP4 POP POP POP POP JUMP JUMPDEST PUSH2 0x1844 DUP1 PUSH3 0x136A PUSH1 0x0 CODECOPY PUSH1 0x0 RETURN INVALID PUSH1 0x80 PUSH1 0x40 MSTORE CALLVALUE DUP1 ISZERO PUSH2 0x10 JUMPI PUSH1 0x0 DUP1 REVERT JUMPDEST POP PUSH1 0x4 CALLDATASIZE LT PUSH2 0x4C JUMPI PUSH1 0x0 CALLDATALOAD PUSH1 0xE0 SHR DUP1 PUSH4 0x2676C4C4 EQ PUSH2 0x51 JUMPI DUP1 PUSH4 0x3E745EA9 EQ PUSH2 0x5B JUMPI DUP1 PUSH4 0xCCEBAFD8 EQ PUSH2 0x77 JUMPI DUP1 PUSH4 0xCE4D01A3 EQ PUSH2 0x81 JUMPI JUMPDEST PUSH1 0x0 DUP1 REVERT JUMPDEST PUSH2 0x59 PUSH2 0x9D JUMP JUMPDEST STOP JUMPDEST PUSH2 0x75 PUSH1 0x4 DUP1 CALLDATASIZE SUB DUP2 ADD SWAP1 PUSH2 0x70 SWAP2 SWAP1 PUSH2 0xCA6 JUMP JUMPDEST PUSH2 0x336 JUMP JUMPDEST STOP JUMPDEST PUSH2 0x7F PUSH2 0x4DF JUMP JUMPDEST STOP JUMPDEST PUSH2 0x9B PUSH1 0x4 DUP1 CALLDATASIZE SUB DUP2 ADD SWAP1 PUSH2 0x96 SWAP2 SWAP1 PUSH2 0xCE6 JUMP JUMPDEST PUSH2 0x91F JUMP JUMPDEST STOP JUMPDEST PUSH1 0x0 CALLER PUSH1 0x40 MLOAD PUSH1 0x20 ADD PUSH2 0xB0 SWAP2 SWAP1 PUSH2 0xD5B JUMP JUMPDEST PUSH1 0x40 MLOAD PUSH1 0x20 DUP2 DUP4 SUB SUB DUP2 MSTORE SWAP1 PUSH1 0x40 MSTORE TIMESTAMP PUSH1 0x40 MLOAD PUSH1 0x20 ADD PUSH2 0xD0 SWAP2 SWAP1 PUSH2 0xD97 JUMP JUMPDEST PUSH1 0x40 MLOAD PUSH1 0x20 DUP2 DUP4 SUB SUB DUP2 MSTORE SWAP1 PUSH1 0x40 MSTORE PUSH1 0x40 MLOAD PUSH1 0x20 ADD PUSH2 0xF0 SWAP3 SWAP2 SWAP1 PUSH2 0xE23 JUMP JUMPDEST PUSH1 0x40 MLOAD PUSH1 0x20 DUP2 DUP4 SUB SUB DUP2 MSTORE SWAP1 PUSH1 0x40 MSTORE PUSH1 0x40 MLOAD PUSH1 0x20 ADD PUSH2 0x10F SWAP2 SWAP1 PUSH2 0xE47 JUMP JUMPDEST PUSH1 0x40 MLOAD PUSH1 0x20 DUP2 DUP4 SUB SUB DUP2 MSTORE SWAP1 PUSH1 0x40 MSTORE DUP1 MLOAD SWAP1 PUSH1 0x20 ADD KECCAK256 PUSH1 0x0 SHR SWAP1 POP PUSH1 0x0 DUP1 PUSH1 0x64 DUP4 PUSH2 0x13A SWAP2 SWAP1 PUSH2 0xE8D JUMP JUMPDEST SUB PUSH2 0x149 JUMPI PUSH2 0x3E8 SWAP1 POP PUSH2 0x18A JUMP JUMPDEST PUSH1 0x0 PUSH1 0xA DUP4 PUSH2 0x158 SWAP2 SWAP1 PUSH2 0xE8D JUMP JUMPDEST SUB PUSH2 0x166 JUMPI PUSH1 0xC8 SWAP1 POP PUSH2 0x189 JUMP JUMPDEST PUSH1 0x0 PUSH1 0x2 DUP4 PUSH2 0x175 SWAP2 SWAP1 PUSH2 0xE8D JUMP JUMPDEST SUB PUSH2 0x183 JUMPI PUSH1 0x32 SWAP1 POP PUSH2 0x188 JUMP JUMPDEST PUSH1 0x19 SWAP1 POP JUMPDEST JUMPDEST JUMPDEST PUSH1 0x0 PUSH1 0x40 MLOAD DUP1 PUSH1 0xA0 ADD PUSH1 0x40 MSTORE DUP1 PUSH1 0x0 SLOAD DUP2 MSTORE PUSH1 0x20 ADD PUSH1 0x0 PUSH20 0xFFFFFFFFFFFFFFFFFFFFFFFFFFFFFFFFFFFFFFFF AND DUP2 MSTORE PUSH1 0x20 ADD CALLER PUSH20 0xFFFFFFFFFFFFFFFFFFFFFFFFFFFFFFFFFFFFFFFF AND DUP2 MSTORE PUSH1 0x20 ADD DUP4 PUSH2 0xFFFF AND DUP2 MSTORE PUSH1 0x20 ADD PUSH1 0x1 ISZERO ISZERO DUP2 MSTORE POP SWAP1 POP PUSH1 0x4 DUP2 SWAP1 DUP1 PUSH1 0x1 DUP2 SLOAD ADD DUP1 DUP3 SSTORE DUP1 SWAP2 POP POP PUSH1 0x1 SWAP1 SUB SWAP1 PUSH1 0x0 MSTORE PUSH1 0x20 PUSH1 0x0 KECCAK256 SWAP1 PUSH1 0x5 MUL ADD PUSH1 0x0 SWAP1 SWAP2 SWAP1 SWAP2 SWAP1 SWAP2 POP PUSH1 0x0 DUP3 ADD MLOAD DUP2 PUSH1 0x0 ADD SSTORE PUSH1 0x20 DUP3 ADD MLOAD DUP2 PUSH1 0x1 ADD PUSH1 0x0 PUSH2 0x100 EXP DUP2 SLOAD DUP2 PUSH20 0xFFFFFFFFFFFFFFFFFFFFFFFFFFFFFFFFFFFFFFFF MUL NOT AND SWAP1 DUP4 PUSH20 0xFFFFFFFFFFFFFFFFFFFFFFFFFFFFFFFFFFFFFFFF AND MUL OR SWAP1 SSTORE POP PUSH1 0x40 DUP3 ADD MLOAD DUP2 PUSH1 0x2 ADD PUSH1 0x0 PUSH2 0x100 EXP DUP2 SLOAD DUP2 PUSH20 0xFFFFFFFFFFFFFFFFFFFFFFFFFFFFFFFFFFFFFFFF MUL NOT AND SWAP1 DUP4 PUSH20 0xFFFFFFFFFFFFFFFFFFFFFFFFFFFFFFFFFFFFFFFF AND MUL OR SWAP1 SSTORE POP PUSH1 0x60 DUP3 ADD MLOAD DUP2 PUSH1 0x3 ADD SSTORE PUSH1 0x80 DUP3 ADD MLOAD DUP2 PUSH1 0x4 ADD PUSH1 0x0 PUSH2 0x100 EXP DUP2 SLOAD DUP2 PUSH1 0xFF MUL NOT AND SWAP1 DUP4 ISZERO ISZERO MUL OR SWAP1 SSTORE POP POP POP PUSH32 0x126C048A15902CF0222584748E8CB01DA45A1928F59F5F2A28CEF76EA883EB45 CALLER DUP4 PUSH1 0x0 SLOAD PUSH1 0x40 MLOAD PUSH2 0x310 SWAP4 SWAP3 SWAP2 SWAP1 PUSH2 0xF25 JUMP JUMPDEST PUSH1 0x40 MLOAD DUP1 SWAP2 SUB SWAP1 LOG1 PUSH1 0x1 PUSH1 0x0 DUP1 DUP3 DUP3 SLOAD PUSH2 0x32A SWAP2 SWAP1 PUSH2 0xF8B JUMP JUMPDEST SWAP3 POP POP DUP2 SWAP1 SSTORE POP POP POP POP JUMP JUMPDEST PUSH1 0x0 PUSH1 0x40 MLOAD DUP1 PUSH1 0xA0 ADD PUSH1 0x40 MSTORE DUP1 PUSH1 0x0 SLOAD DUP2 MSTORE PUSH1 0x20 ADD CALLER PUSH20 0xFFFFFFFFFFFFFFFFFFFFFFFFFFFFFFFFFFFFFFFF AND DUP2 MSTORE PUSH1 0x20 ADD DUP4 PUSH20 0xFFFFFFFFFFFFFFFFFFFFFFFFFFFFFFFFFFFFFFFF AND DUP2 MSTORE PUSH1 0x20 ADD DUP5 DUP2 MSTORE PUSH1 0x20 ADD PUSH1 0x0 ISZERO ISZERO DUP2 MSTORE POP SWAP1 POP PUSH1 0x4 DUP2 SWAP1 DUP1 PUSH1 0x1 DUP2 SLOAD ADD DUP1 DUP3 SSTORE DUP1 SWAP2 POP POP PUSH1 0x1 SWAP1 SUB SWAP1 PUSH1 0x0 MSTORE PUSH1 0x20 PUSH1 0x0 KECCAK256 SWAP1 PUSH1 0x5 MUL ADD PUSH1 0x0 SWAP1 SWAP2 SWAP1 SWAP2 SWAP1 SWAP2 POP PUSH1 0x0 DUP3 ADD MLOAD DUP2 PUSH1 0x0 ADD SSTORE PUSH1 0x20 DUP3 ADD MLOAD DUP2 PUSH1 0x1 ADD PUSH1 0x0 PUSH2 0x100 EXP DUP2 SLOAD DUP2 PUSH20 0xFFFFFFFFFFFFFFFFFFFFFFFFFFFFFFFFFFFFFFFF MUL NOT AND SWAP1 DUP4 PUSH20 0xFFFFFFFFFFFFFFFFFFFFFFFFFFFFFFFFFFFFFFFF AND MUL OR SWAP1 SSTORE POP PUSH1 0x40 DUP3 ADD MLOAD DUP2 PUSH1 0x2 ADD PUSH1 0x0 PUSH2 0x100 EXP DUP2 SLOAD DUP2 PUSH20 0xFFFFFFFFFFFFFFFFFFFFFFFFFFFFFFFFFFFFFFFF MUL NOT AND SWAP1 DUP4 PUSH20 0xFFFFFFFFFFFFFFFFFFFFFFFFFFFFFFFFFFFFFFFF AND MUL OR SWAP1 SSTORE POP PUSH1 0x60 DUP3 ADD MLOAD DUP2 PUSH1 0x3 ADD SSTORE PUSH1 0x80 DUP3 ADD MLOAD DUP2 PUSH1 0x4 ADD PUSH1 0x0 PUSH2 0x100 EXP DUP2 SLOAD DUP2 PUSH1 0xFF MUL NOT AND SWAP1 DUP4 ISZERO ISZERO MUL OR SWAP1 SSTORE POP POP POP PUSH32 0x79546E4F645F4B6424EB5E81FB1FBB7B38C81B544068A5C4E763DC100A67148E PUSH1 0x0 SLOAD CALLER DUP5 DUP7 PUSH1 0x40 MLOAD PUSH2 0x4B9 SWAP5 SWAP4 SWAP3 SWAP2 SWAP1 PUSH2 0xFBF JUMP JUMPDEST PUSH1 0x40 MLOAD DUP1 SWAP2 SUB SWAP1 LOG1 PUSH1 0x1 PUSH1 0x0 DUP1 DUP3 DUP3 SLOAD PUSH2 0x4D3 SWAP2 SWAP1 PUSH2 0xF8B JUMP JUMPDEST SWAP3 POP POP DUP2 SWAP1 SSTORE POP POP POP POP JUMP JUMPDEST PUSH1 0x1 PUSH1 0x0 SWAP1 SLOAD SWAP1 PUSH2 0x100 EXP SWAP1 DIV PUSH20 0xFFFFFFFFFFFFFFFFFFFFFFFFFFFFFFFFFFFFFFFF AND PUSH20 0xFFFFFFFFFFFFFFFFFFFFFFFFFFFFFFFFFFFFFFFF AND CALLER PUSH20 0xFFFFFFFFFFFFFFFFFFFFFFFFFFFFFFFFFFFFFFFF AND EQ PUSH2 0x56F JUMPI PUSH1 0x40 MLOAD PUSH32 0x8C379A000000000000000000000000000000000000000000000000000000000 DUP2 MSTORE PUSH1 0x4 ADD PUSH2 0x566 SWAP1 PUSH2 0x1087 JUMP JUMPDEST PUSH1 0x40 MLOAD DUP1 SWAP2 SUB SWAP1 REVERT JUMPDEST PUSH1 0x0 PUSH1 0x4 DUP1 SLOAD SWAP1 POP PUSH8 0xFFFFFFFFFFFFFFFF DUP2 GT ISZERO PUSH2 0x590 JUMPI PUSH2 0x58F PUSH2 0x10A7 JUMP JUMPDEST JUMPDEST PUSH1 0x40 MLOAD SWAP1 DUP1 DUP3 MSTORE DUP1 PUSH1 0x20 MUL PUSH1 0x20 ADD DUP3 ADD PUSH1 0x40 MSTORE DUP1 ISZERO PUSH2 0x5C3 JUMPI DUP2 PUSH1 0x20 ADD JUMPDEST PUSH1 0x60 DUP2 MSTORE PUSH1 0x20 ADD SWAP1 PUSH1 0x1 SWAP1 SUB SWAP1 DUP2 PUSH2 0x5AE JUMPI SWAP1 POP JUMPDEST POP SWAP1 POP PUSH1 0x2 SLOAD PUSH1 0x40 MLOAD PUSH1 0x20 ADD PUSH2 0x5D9 SWAP2 SWAP1 PUSH2 0x1199 JUMP JUMPDEST PUSH1 0x40 MLOAD PUSH1 0x20 DUP2 DUP4 SUB SUB DUP2 MSTORE SWAP1 PUSH1 0x40 MSTORE DUP2 PUSH1 0x0 DUP2 MLOAD DUP2 LT PUSH2 0x5FC JUMPI PUSH2 0x5FB PUSH2 0x11CA JUMP JUMPDEST JUMPDEST PUSH1 0x20 MUL PUSH1 0x20 ADD ADD DUP2 SWAP1 MSTORE POP PUSH2 0x612 PUSH1 0x3 SLOAD PUSH2 0x9FC JUMP JUMPDEST PUSH1 0x40 MLOAD PUSH1 0x20 ADD PUSH2 0x622 SWAP2 SWAP1 PUSH2 0x1291 JUMP JUMPDEST PUSH1 0x40 MLOAD PUSH1 0x20 DUP2 DUP4 SUB SUB DUP2 MSTORE SWAP1 PUSH1 0x40 MSTORE DUP2 PUSH1 0x1 DUP2 MLOAD DUP2 LT PUSH2 0x645 JUMPI PUSH2 0x644 PUSH2 0x11CA JUMP JUMPDEST JUMPDEST PUSH1 0x20 MUL PUSH1 0x20 ADD ADD DUP2 SWAP1 MSTORE POP PUSH2 0x659 TIMESTAMP PUSH2 0x9FC JUMP JUMPDEST PUSH1 0x40 MLOAD PUSH1 0x20 ADD PUSH2 0x669 SWAP2 SWAP1 PUSH2 0x130A JUMP JUMPDEST PUSH1 0x40 MLOAD PUSH1 0x20 DUP2 DUP4 SUB SUB DUP2 MSTORE SWAP1 PUSH1 0x40 MSTORE DUP2 PUSH1 0x2 DUP2 MLOAD DUP2 LT PUSH2 0x68C JUMPI PUSH2 0x68B PUSH2 0x11CA JUMP JUMPDEST JUMPDEST PUSH1 0x20 MUL PUSH1 0x20 ADD ADD DUP2 SWAP1 MSTORE POP PUSH1 0x0 PUSH1 0x3 SWAP1 POP PUSH1 0x0 JUMPDEST PUSH1 0x4 DUP1 SLOAD SWAP1 POP DUP2 LT ISZERO PUSH2 0x83B JUMPI PUSH1 0x1 ISZERO ISZERO PUSH1 0x4 DUP3 DUP2 SLOAD DUP2 LT PUSH2 0x6C5 JUMPI PUSH2 0x6C4 PUSH2 0x11CA JUMP JUMPDEST JUMPDEST SWAP1 PUSH1 0x0 MSTORE PUSH1 0x20 PUSH1 0x0 KECCAK256 SWAP1 PUSH1 0x5 MUL ADD PUSH1 0x4 ADD PUSH1 0x0 SWAP1 SLOAD SWAP1 PUSH2 0x100 EXP SWAP1 DIV PUSH1 0xFF AND ISZERO ISZERO SUB PUSH2 0x828 JUMPI PUSH1 0x0 PUSH2 0x71B PUSH1 0x4 DUP4 DUP2 SLOAD DUP2 LT PUSH2 0x704 JUMPI PUSH2 0x703 PUSH2 0x11CA JUMP JUMPDEST JUMPDEST SWAP1 PUSH1 0x0 MSTORE PUSH1 0x20 PUSH1 0x0 KECCAK256 SWAP1 PUSH1 0x5 MUL ADD PUSH1 0x0 ADD SLOAD PUSH2 0x9FC JUMP JUMPDEST PUSH1 0x4 DUP4 DUP2 SLOAD DUP2 LT PUSH2 0x72F JUMPI PUSH2 0x72E PUSH2 0x11CA JUMP JUMPDEST JUMPDEST SWAP1 PUSH1 0x0 MSTORE PUSH1 0x20 PUSH1 0x0 KECCAK256 SWAP1 PUSH1 0x5 MUL ADD PUSH1 0x1 ADD PUSH1 0x0 SWAP1 SLOAD SWAP1 PUSH2 0x100 EXP SWAP1 DIV PUSH20 0xFFFFFFFFFFFFFFFFFFFFFFFFFFFFFFFFFFFFFFFF AND PUSH1 0x4 DUP5 DUP2 SLOAD DUP2 LT PUSH2 0x775 JUMPI PUSH2 0x774 PUSH2 0x11CA JUMP JUMPDEST JUMPDEST SWAP1 PUSH1 0x0 MSTORE PUSH1 0x20 PUSH1 0x0 KECCAK256 SWAP1 PUSH1 0x5 MUL ADD PUSH1 0x2 ADD PUSH1 0x0 SWAP1 SLOAD SWAP1 PUSH2 0x100 EXP SWAP1 DIV PUSH20 0xFFFFFFFFFFFFFFFFFFFFFFFFFFFFFFFFFFFFFFFF AND PUSH2 0x7D5 PUSH1 0x4 DUP7 DUP2 SLOAD DUP2 LT PUSH2 0x7BE JUMPI PUSH2 0x7BD PUSH2 0x11CA JUMP JUMPDEST JUMPDEST SWAP1 PUSH1 0x0 MSTORE PUSH1 0x20 PUSH1 0x0 KECCAK256 SWAP1 PUSH1 0x5 MUL ADD PUSH1 0x3 ADD SLOAD PUSH2 0x9FC JUMP JUMPDEST PUSH1 0x40 MLOAD PUSH1 0x20 ADD PUSH2 0x7E8 SWAP5 SWAP4 SWAP3 SWAP2 SWAP1 PUSH2 0x154B JUMP JUMPDEST PUSH1 0x40 MLOAD PUSH1 0x20 DUP2 DUP4 SUB SUB DUP2 MSTORE SWAP1 PUSH1 0x40 MSTORE SWAP1 POP DUP1 DUP5 DUP5 DUP2 MLOAD DUP2 LT PUSH2 0x80D JUMPI PUSH2 0x80C PUSH2 0x11CA JUMP JUMPDEST JUMPDEST PUSH1 0x20 MUL PUSH1 0x20 ADD ADD DUP2 SWAP1 MSTORE POP DUP3 DUP1 PUSH2 0x823 SWAP1 PUSH2 0x15FF JUMP JUMPDEST SWAP4 POP POP POP JUMPDEST DUP1 DUP1 PUSH2 0x833 SWAP1 PUSH2 0x15FF JUMP JUMPDEST SWAP2 POP POP PUSH2 0x6A0 JUMP JUMPDEST POP PUSH1 0x0 PUSH2 0x87D DUP4 PUSH1 0x40 MLOAD DUP1 PUSH1 0x40 ADD PUSH1 0x40 MSTORE DUP1 PUSH1 0x1 DUP2 MSTORE PUSH1 0x20 ADD PUSH32 0x2C00000000000000000000000000000000000000000000000000000000000000 DUP2 MSTORE POP PUSH2 0xB5C JUMP JUMPDEST PUSH1 0x40 MLOAD PUSH1 0x20 ADD PUSH2 0x88D SWAP2 SWAP1 PUSH2 0x16DF JUMP JUMPDEST PUSH1 0x40 MLOAD PUSH1 0x20 DUP2 DUP4 SUB SUB DUP2 MSTORE SWAP1 PUSH1 0x40 MSTORE SWAP1 POP PUSH32 0x59001E29D8BB7C2E7E5985436EA2F292294E757E63A167AF3980FDA2528D6106 DUP2 PUSH1 0x40 MLOAD PUSH2 0x8CD SWAP2 SWAP1 PUSH2 0x1756 JUMP JUMPDEST PUSH1 0x40 MLOAD DUP1 SWAP2 SUB SWAP1 LOG1 DUP1 PUSH1 0x40 MLOAD PUSH1 0x20 ADD PUSH2 0x8E6 SWAP2 SWAP1 PUSH2 0xE47 JUMP JUMPDEST PUSH1 0x40 MLOAD PUSH1 0x20 DUP2 DUP4 SUB SUB DUP2 MSTORE SWAP1 PUSH1 0x40 MSTORE DUP1 MLOAD SWAP1 PUSH1 0x20 ADD KECCAK256 PUSH1 0x2 DUP2 SWAP1 SSTORE POP PUSH1 0x3 PUSH1 0x0 DUP2 SLOAD DUP1 SWAP3 SWAP2 SWAP1 PUSH2 0x915 SWAP1 PUSH2 0x15FF JUMP JUMPDEST SWAP2 SWAP1 POP SSTORE POP POP POP POP JUMP JUMPDEST PUSH1 0x1 PUSH1 0x0 SWAP1 SLOAD SWAP1 PUSH2 0x100 EXP SWAP1 DIV PUSH20 0xFFFFFFFFFFFFFFFFFFFFFFFFFFFFFFFFFFFFFFFF AND PUSH20 0xFFFFFFFFFFFFFFFFFFFFFFFFFFFFFFFFFFFFFFFF AND CALLER PUSH20 0xFFFFFFFFFFFFFFFFFFFFFFFFFFFFFFFFFFFFFFFF AND EQ PUSH2 0x9AF JUMPI PUSH1 0x40 MLOAD PUSH32 0x8C379A000000000000000000000000000000000000000000000000000000000 DUP2 MSTORE PUSH1 0x4 ADD PUSH2 0x9A6 SWAP1 PUSH2 0x1087 JUMP JUMPDEST PUSH1 0x40 MLOAD DUP1 SWAP2 SUB SWAP1 REVERT JUMPDEST PUSH1 0x1 PUSH1 0x4 PUSH1 0x1 DUP4 PUSH2 0x9C0 SWAP2 SWAP1 PUSH2 0x1778 JUMP JUMPDEST DUP2 SLOAD DUP2 LT PUSH2 0x9D1 JUMPI PUSH2 0x9D0 PUSH2 0x11CA JUMP JUMPDEST JUMPDEST SWAP1 PUSH1 0x0 MSTORE PUSH1 0x20 PUSH1 0x0 KECCAK256 SWAP1 PUSH1 0x5 MUL ADD PUSH1 0x4 ADD PUSH1 0x0 PUSH2 0x100 EXP DUP2 SLOAD DUP2 PUSH1 0xFF MUL NOT AND SWAP1 DUP4 ISZERO ISZERO MUL OR SWAP1 SSTORE POP POP JUMP JUMPDEST PUSH1 0x60 PUSH1 0x0 DUP3 SUB PUSH2 0xA43 JUMPI PUSH1 0x40 MLOAD DUP1 PUSH1 0x40 ADD PUSH1 0x40 MSTORE DUP1 PUSH1 0x1 DUP2 MSTORE PUSH1 0x20 ADD PUSH32 0x3000000000000000000000000000000000000000000000000000000000000000 DUP2 MSTORE POP SWAP1 POP PUSH2 0xB57 JUMP JUMPDEST PUSH1 0x0 DUP3 SWAP1 POP PUSH1 0x0 JUMPDEST PUSH1 0x0 DUP3 EQ PUSH2 0xA75 JUMPI DUP1 DUP1 PUSH2 0xA5E SWAP1 PUSH2 0x15FF JUMP JUMPDEST SWAP2 POP POP PUSH1 0xA DUP3 PUSH2 0xA6E SWAP2 SWAP1 PUSH2 0x17AC JUMP JUMPDEST SWAP2 POP PUSH2 0xA4B JUMP JUMPDEST PUSH1 0x0 DUP2 PUSH8 0xFFFFFFFFFFFFFFFF DUP2 GT ISZERO PUSH2 0xA91 JUMPI PUSH2 0xA90 PUSH2 0x10A7 JUMP JUMPDEST JUMPDEST PUSH1 0x40 MLOAD SWAP1 DUP1 DUP3 MSTORE DUP1 PUSH1 0x1F ADD PUSH1 0x1F NOT AND PUSH1 0x20 ADD DUP3 ADD PUSH1 0x40 MSTORE DUP1 ISZERO PUSH2 0xAC3 JUMPI DUP2 PUSH1 0x20 ADD PUSH1 0x1 DUP3 MUL DUP1 CALLDATASIZE DUP4 CALLDATACOPY DUP1 DUP3 ADD SWAP2 POP POP SWAP1 POP JUMPDEST POP SWAP1 POP JUMPDEST PUSH1 0x0 DUP6 EQ PUSH2 0xB50 JUMPI PUSH1 0x1 DUP3 PUSH2 0xADC SWAP2 SWAP1 PUSH2 0x1778 JUMP JUMPDEST SWAP2 POP PUSH1 0xA DUP6 PUSH2 0xAEB SWAP2 SWAP1 PUSH2 0xE8D JUMP JUMPDEST PUSH1 0x30 PUSH2 0xAF7 SWAP2 SWAP1 PUSH2 0xF8B JUMP JUMPDEST PUSH1 0xF8 SHL DUP2 DUP4 DUP2 MLOAD DUP2 LT PUSH2 0xB0D JUMPI PUSH2 0xB0C PUSH2 0x11CA JUMP JUMPDEST JUMPDEST PUSH1 0x20 ADD ADD SWAP1 PUSH31 0xFFFFFFFFFFFFFFFFFFFFFFFFFFFFFFFFFFFFFFFFFFFFFFFFFFFFFFFFFFFFFF NOT AND SWAP1 DUP2 PUSH1 0x0 BYTE SWAP1 MSTORE8 POP PUSH1 0xA DUP6 PUSH2 0xB49 SWAP2 SWAP1 PUSH2 0x17AC JUMP JUMPDEST SWAP5 POP PUSH2 0xAC7 JUMP JUMPDEST DUP1 SWAP4 POP POP POP POP JUMPDEST SWAP2 SWAP1 POP JUMP JUMPDEST PUSH1 0x60 PUSH1 0x0 DUP4 MLOAD SUB PUSH2 0xB7E JUMPI PUSH1 0x40 MLOAD DUP1 PUSH1 0x20 ADD PUSH1 0x40 MSTORE DUP1 PUSH1 0x0 DUP2 MSTORE POP SWAP1 POP PUSH2 0xC07 JUMP JUMPDEST PUSH1 0x0 DUP4 PUSH1 0x0 DUP2 MLOAD DUP2 LT PUSH2 0xB94 JUMPI PUSH2 0xB93 PUSH2 0x11CA JUMP JUMPDEST JUMPDEST PUSH1 0x20 MUL PUSH1 0x20 ADD ADD MLOAD SWAP1 POP PUSH1 0x0 PUSH1 0x1 SWAP1 POP JUMPDEST DUP5 MLOAD DUP2 LT ISZERO PUSH2 0xC01 JUMPI DUP2 DUP5 DUP7 DUP4 DUP2 MLOAD DUP2 LT PUSH2 0xBC3 JUMPI PUSH2 0xBC2 PUSH2 0x11CA JUMP JUMPDEST JUMPDEST PUSH1 0x20 MUL PUSH1 0x20 ADD ADD MLOAD PUSH1 0x40 MLOAD PUSH1 0x20 ADD PUSH2 0xBDD SWAP4 SWAP3 SWAP2 SWAP1 PUSH2 0x17DD JUMP JUMPDEST PUSH1 0x40 MLOAD PUSH1 0x20 DUP2 DUP4 SUB SUB DUP2 MSTORE SWAP1 PUSH1 0x40 MSTORE SWAP2 POP DUP1 DUP1 PUSH2 0xBF9 SWAP1 PUSH2 0x15FF JUMP JUMPDEST SWAP2 POP POP PUSH2 0xBA5 JUMP JUMPDEST POP DUP1 SWAP2 POP POP JUMPDEST SWAP3 SWAP2 POP POP JUMP JUMPDEST PUSH1 0x0 DUP1 REVERT JUMPDEST PUSH1 0x0 DUP2 SWAP1 POP SWAP2 SWAP1 POP JUMP JUMPDEST PUSH2 0xC25 DUP2 PUSH2 0xC12 JUMP JUMPDEST DUP2 EQ PUSH2 0xC30 JUMPI PUSH1 0x0 DUP1 REVERT JUMPDEST POP JUMP JUMPDEST PUSH1 0x0 DUP2 CALLDATALOAD SWAP1 POP PUSH2 0xC42 DUP2 PUSH2 0xC1C JUMP JUMPDEST SWAP3 SWAP2 POP POP JUMP JUMPDEST PUSH1 0x0 PUSH20 0xFFFFFFFFFFFFFFFFFFFFFFFFFFFFFFFFFFFFFFFF DUP3 AND SWAP1 POP SWAP2 SWAP1 POP JUMP JUMPDEST PUSH1 0x0 PUSH2 0xC73 DUP3 PUSH2 0xC48 JUMP JUMPDEST SWAP1 POP SWAP2 SWAP1 POP JUMP JUMPDEST PUSH2 0xC83 DUP2 PUSH2 0xC68 JUMP JUMPDEST DUP2 EQ PUSH2 0xC8E JUMPI PUSH1 0x0 DUP1 REVERT JUMPDEST POP JUMP JUMPDEST PUSH1 0x0 DUP2 CALLDATALOAD SWAP1 POP PUSH2 0xCA0 DUP2 PUSH2 0xC7A JUMP JUMPDEST SWAP3 SWAP2 POP POP JUMP JUMPDEST PUSH1 0x0 DUP1 PUSH1 0x40 DUP4 DUP6 SUB SLT ISZERO PUSH2 0xCBD JUMPI PUSH2 0xCBC PUSH2 0xC0D JUMP JUMPDEST JUMPDEST PUSH1 0x0 PUSH2 0xCCB DUP6 DUP3 DUP7 ADD PUSH2 0xC33 JUMP JUMPDEST SWAP3 POP POP PUSH1 0x20 PUSH2 0xCDC DUP6 DUP3 DUP7 ADD PUSH2 0xC91 JUMP JUMPDEST SWAP2 POP POP SWAP3 POP SWAP3 SWAP1 POP JUMP JUMPDEST PUSH1 0x0 PUSH1 0x20 DUP3 DUP5 SUB SLT ISZERO PUSH2 0xCFC JUMPI PUSH2 0xCFB PUSH2 0xC0D JUMP JUMPDEST JUMPDEST PUSH1 0x0 PUSH2 0xD0A DUP5 DUP3 DUP6 ADD PUSH2 0xC33 JUMP JUMPDEST SWAP2 POP POP SWAP3 SWAP2 POP POP JUMP JUMPDEST PUSH1 0x0 DUP2 PUSH1 0x60 SHL SWAP1 POP SWAP2 SWAP1 POP JUMP JUMPDEST PUSH1 0x0 PUSH2 0xD2B DUP3 PUSH2 0xD13 JUMP JUMPDEST SWAP1 POP SWAP2 SWAP1 POP JUMP JUMPDEST PUSH1 0x0 PUSH2 0xD3D DUP3 PUSH2 0xD20 JUMP JUMPDEST SWAP1 POP SWAP2 SWAP1 POP JUMP JUMPDEST PUSH2 0xD55 PUSH2 0xD50 DUP3 PUSH2 0xC68 JUMP JUMPDEST PUSH2 0xD32 JUMP JUMPDEST DUP3 MSTORE POP POP JUMP JUMPDEST PUSH1 0x0 PUSH2 0xD67 DUP3 DUP5 PUSH2 0xD44 JUMP JUMPDEST PUSH1 0x14 DUP3 ADD SWAP2 POP DUP2 SWAP1 POP SWAP3 SWAP2 POP POP JUMP JUMPDEST PUSH1 0x0 DUP2 SWAP1 POP SWAP2 SWAP1 POP JUMP JUMPDEST PUSH2 0xD91 PUSH2 0xD8C DUP3 PUSH2 0xC12 JUMP JUMPDEST PUSH2 0xD76 JUMP JUMPDEST DUP3 MSTORE POP POP JUMP JUMPDEST PUSH1 0x0 PUSH2 0xDA3 DUP3 DUP5 PUSH2 0xD80 JUMP JUMPDEST PUSH1 0x20 DUP3 ADD SWAP2 POP DUP2 SWAP1 POP SWAP3 SWAP2 POP POP JUMP JUMPDEST PUSH1 0x0 DUP2 MLOAD SWAP1 POP SWAP2 SWAP1 POP JUMP JUMPDEST PUSH1 0x0 DUP2 SWAP1 POP SWAP3 SWAP2 POP POP JUMP JUMPDEST PUSH1 0x0 JUMPDEST DUP4 DUP2 LT ISZERO PUSH2 0xDE6 JUMPI DUP1 DUP3 ADD MLOAD DUP2 DUP5 ADD MSTORE PUSH1 0x20 DUP2 ADD SWAP1 POP PUSH2 0xDCB JUMP JUMPDEST PUSH1 0x0 DUP5 DUP5 ADD MSTORE POP POP POP POP JUMP JUMPDEST PUSH1 0x0 PUSH2 0xDFD DUP3 PUSH2 0xDB2 JUMP JUMPDEST PUSH2 0xE07 DUP2 DUP6 PUSH2 0xDBD JUMP JUMPDEST SWAP4 POP PUSH2 0xE17 DUP2 DUP6 PUSH1 0x20 DUP7 ADD PUSH2 0xDC8 JUMP JUMPDEST DUP1 DUP5 ADD SWAP2 POP POP SWAP3 SWAP2 POP POP JUMP JUMPDEST PUSH1 0x0 PUSH2 0xE2F DUP3 DUP6 PUSH2 0xDF2 JUMP JUMPDEST SWAP2 POP PUSH2 0xE3B DUP3 DUP5 PUSH2 0xDF2 JUMP JUMPDEST SWAP2 POP DUP2 SWAP1 POP SWAP4 SWAP3 POP POP POP JUMP JUMPDEST PUSH1 0x0 PUSH2 0xE53 DUP3 DUP5 PUSH2 0xDF2 JUMP JUMPDEST SWAP2 POP DUP2 SWAP1 POP SWAP3 SWAP2 POP POP JUMP JUMPDEST PUSH32 0x4E487B7100000000000000000000000000000000000000000000000000000000 PUSH1 0x0 MSTORE PUSH1 0x12 PUSH1 0x4 MSTORE PUSH1 0x24 PUSH1 0x0 REVERT JUMPDEST PUSH1 0x0 PUSH2 0xE98 DUP3 PUSH2 0xC12 JUMP JUMPDEST SWAP2 POP PUSH2 0xEA3 DUP4 PUSH2 0xC12 JUMP JUMPDEST SWAP3 POP DUP3 PUSH2 0xEB3 JUMPI PUSH2 0xEB2 PUSH2 0xE5E JUMP JUMPDEST JUMPDEST DUP3 DUP3 MOD SWAP1 POP SWAP3 SWAP2 POP POP JUMP JUMPDEST PUSH2 0xEC7 DUP2 PUSH2 0xC68 JUMP JUMPDEST DUP3 MSTORE POP POP JUMP JUMPDEST PUSH1 0x0 PUSH2 0xFFFF DUP3 AND SWAP1 POP SWAP2 SWAP1 POP JUMP JUMPDEST PUSH1 0x0 DUP2 SWAP1 POP SWAP2 SWAP1 POP JUMP JUMPDEST PUSH1 0x0 PUSH2 0xF00 PUSH2 0xEFB PUSH2 0xEF6 DUP5 PUSH2 0xECD JUMP JUMPDEST PUSH2 0xEDB JUMP JUMPDEST PUSH2 0xC12 JUMP JUMPDEST SWAP1 POP SWAP2 SWAP1 POP JUMP JUMPDEST PUSH2 0xF10 DUP2 PUSH2 0xEE5 JUMP JUMPDEST DUP3 MSTORE POP POP JUMP JUMPDEST PUSH2 0xF1F DUP2 PUSH2 0xC12 JUMP JUMPDEST DUP3 MSTORE POP POP JUMP JUMPDEST PUSH1 0x0 PUSH1 0x60 DUP3 ADD SWAP1 POP PUSH2 0xF3A PUSH1 0x0 DUP4 ADD DUP7 PUSH2 0xEBE JUMP JUMPDEST PUSH2 0xF47 PUSH1 0x20 DUP4 ADD DUP6 PUSH2 0xF07 JUMP JUMPDEST PUSH2 0xF54 PUSH1 0x40 DUP4 ADD DUP5 PUSH2 0xF16 JUMP JUMPDEST SWAP5 SWAP4 POP POP POP POP JUMP JUMPDEST PUSH32 0x4E487B7100000000000000000000000000000000000000000000000000000000 PUSH1 0x0 MSTORE PUSH1 0x11 PUSH1 0x4 MSTORE PUSH1 0x24 PUSH1 0x0 REVERT JUMPDEST PUSH1 0x0 PUSH2 0xF96 DUP3 PUSH2 0xC12 JUMP JUMPDEST SWAP2 POP PUSH2 0xFA1 DUP4 PUSH2 0xC12 JUMP JUMPDEST SWAP3 POP DUP3 DUP3 ADD SWAP1 POP DUP1 DUP3 GT ISZERO PUSH2 0xFB9 JUMPI PUSH2 0xFB8 PUSH2 0xF5C JUMP JUMPDEST JUMPDEST SWAP3 SWAP2 POP POP JUMP JUMPDEST PUSH1 0x0 PUSH1 0x80 DUP3 ADD SWAP1 POP PUSH2 0xFD4 PUSH1 0x0 DUP4 ADD DUP8 PUSH2 0xF16 JUMP JUMPDEST PUSH2 0xFE1 PUSH1 0x20 DUP4 ADD DUP7 PUSH2 0xEBE JUMP JUMPDEST PUSH2 0xFEE PUSH1 0x40 DUP4 ADD DUP6 PUSH2 0xEBE JUMP JUMPDEST PUSH2 0xFFB PUSH1 0x60 DUP4 ADD DUP5 PUSH2 0xF16 JUMP JUMPDEST SWAP6 SWAP5 POP POP POP POP POP JUMP JUMPDEST PUSH1 0x0 DUP3 DUP3 MSTORE PUSH1 0x20 DUP3 ADD SWAP1 POP SWAP3 SWAP2 POP POP JUMP JUMPDEST PUSH32 0x4F6E6C7920746865206F776E65722063616E2063616C6C20746869732066756E PUSH1 0x0 DUP3 ADD MSTORE PUSH32 0x6374696F6E000000000000000000000000000000000000000000000000000000 PUSH1 0x20 DUP3 ADD MSTORE POP JUMP JUMPDEST PUSH1 0x0 PUSH2 0x1071 PUSH1 0x25 DUP4 PUSH2 0x1004 JUMP JUMPDEST SWAP2 POP PUSH2 0x107C DUP3 PUSH2 0x1015 JUMP JUMPDEST PUSH1 0x40 DUP3 ADD SWAP1 POP SWAP2 SWAP1 POP JUMP JUMPDEST PUSH1 0x0 PUSH1 0x20 DUP3 ADD SWAP1 POP DUP2 DUP2 SUB PUSH1 0x0 DUP4 ADD MSTORE PUSH2 0x10A0 DUP2 PUSH2 0x1064 JUMP JUMPDEST SWAP1 POP SWAP2 SWAP1 POP JUMP JUMPDEST PUSH32 0x4E487B7100000000000000000000000000000000000000000000000000000000 PUSH1 0x0 MSTORE PUSH1 0x41 PUSH1 0x4 MSTORE PUSH1 0x24 PUSH1 0x0 REVERT JUMPDEST PUSH32 0x7B2270726576696F75735F68617368223A220000000000000000000000000000 PUSH1 0x0 DUP3 ADD MSTORE POP JUMP JUMPDEST PUSH1 0x0 PUSH2 0x110C PUSH1 0x12 DUP4 PUSH2 0xDBD JUMP JUMPDEST SWAP2 POP PUSH2 0x1117 DUP3 PUSH2 0x10D6 JUMP JUMPDEST PUSH1 0x12 DUP3 ADD SWAP1 POP SWAP2 SWAP1 POP JUMP JUMPDEST PUSH1 0x0 DUP2 SWAP1 POP SWAP2 SWAP1 POP JUMP JUMPDEST PUSH1 0x0 DUP2 SWAP1 POP SWAP2 SWAP1 POP JUMP JUMPDEST PUSH2 0x1147 PUSH2 0x1142 DUP3 PUSH2 0x1122 JUMP JUMPDEST PUSH2 0x112C JUMP JUMPDEST DUP3 MSTORE POP POP JUMP JUMPDEST PUSH32 0x222C000000000000000000000000000000000000000000000000000000000000 PUSH1 0x0 DUP3 ADD MSTORE POP JUMP JUMPDEST PUSH1 0x0 PUSH2 0x1183 PUSH1 0x2 DUP4 PUSH2 0xDBD JUMP JUMPDEST SWAP2 POP PUSH2 0x118E DUP3 PUSH2 0x114D JUMP JUMPDEST PUSH1 0x2 DUP3 ADD SWAP1 POP SWAP2 SWAP1 POP JUMP JUMPDEST PUSH1 0x0 PUSH2 0x11A4 DUP3 PUSH2 0x10FF JUMP JUMPDEST SWAP2 POP PUSH2 0x11B0 DUP3 DUP5 PUSH2 0x1136 JUMP JUMPDEST PUSH1 0x20 DUP3 ADD SWAP2 POP PUSH2 0x11BF DUP3 PUSH2 0x1176 JUMP JUMPDEST SWAP2 POP DUP2 SWAP1 POP SWAP3 SWAP2 POP POP JUMP JUMPDEST PUSH32 0x4E487B7100000000000000000000000000000000000000000000000000000000 PUSH1 0x0 MSTORE PUSH1 0x32 PUSH1 0x4 MSTORE PUSH1 0x24 PUSH1 0x0 REVERT JUMPDEST PUSH32 0x22626C6F636B5F6E756D626572223A0000000000000000000000000000000000 PUSH1 0x0 DUP3 ADD MSTORE POP JUMP JUMPDEST PUSH1 0x0 PUSH2 0x122F PUSH1 0xF DUP4 PUSH2 0xDBD JUMP JUMPDEST SWAP2 POP PUSH2 0x123A DUP3 PUSH2 0x11F9 JUMP JUMPDEST PUSH1 0xF DUP3 ADD SWAP1 POP SWAP2 SWAP1 POP JUMP JUMPDEST PUSH32 0x2C00000000000000000000000000000000000000000000000000000000000000 PUSH1 0x0 DUP3 ADD MSTORE POP JUMP JUMPDEST PUSH1 0x0 PUSH2 0x127B PUSH1 0x1 DUP4 PUSH2 0xDBD JUMP JUMPDEST SWAP2 POP PUSH2 0x1286 DUP3 PUSH2 0x1245 JUMP JUMPDEST PUSH1 0x1 DUP3 ADD SWAP1 POP SWAP2 SWAP1 POP JUMP JUMPDEST PUSH1 0x0 PUSH2 0x129C DUP3 PUSH2 0x1222 JUMP JUMPDEST SWAP2 POP PUSH2 0x12A8 DUP3 DUP5 PUSH2 0xDF2 JUMP JUMPDEST SWAP2 POP PUSH2 0x12B3 DUP3 PUSH2 0x126E JUMP JUMPDEST SWAP2 POP DUP2 SWAP1 POP SWAP3 SWAP2 POP POP JUMP JUMPDEST PUSH32 0x2274696D657374616D70223A0000000000000000000000000000000000000000 PUSH1 0x0 DUP3 ADD MSTORE POP JUMP JUMPDEST PUSH1 0x0 PUSH2 0x12F4 PUSH1 0xC DUP4 PUSH2 0xDBD JUMP JUMPDEST SWAP2 POP PUSH2 0x12FF DUP3 PUSH2 0x12BE JUMP JUMPDEST PUSH1 0xC DUP3 ADD SWAP1 POP SWAP2 SWAP1 POP JUMP JUMPDEST PUSH1 0x0 PUSH2 0x1315 DUP3 PUSH2 0x12E7 JUMP JUMPDEST SWAP2 POP PUSH2 0x1321 DUP3 DUP5 PUSH2 0xDF2 JUMP JUMPDEST SWAP2 POP PUSH2 0x132C DUP3 PUSH2 0x126E JUMP JUMPDEST SWAP2 POP DUP2 SWAP1 POP SWAP3 SWAP2 POP POP JUMP JUMPDEST PUSH32 0x7B00000000000000000000000000000000000000000000000000000000000000 PUSH1 0x0 DUP3 ADD MSTORE POP JUMP JUMPDEST PUSH1 0x0 PUSH2 0x136D PUSH1 0x1 DUP4 PUSH2 0xDBD JUMP JUMPDEST SWAP2 POP PUSH2 0x1378 DUP3 PUSH2 0x1337 JUMP JUMPDEST PUSH1 0x1 DUP3 ADD SWAP1 POP SWAP2 SWAP1 POP JUMP JUMPDEST PUSH32 0x226E756D626572223A2200000000000000000000000000000000000000000000 PUSH1 0x0 DUP3 ADD MSTORE POP JUMP JUMPDEST PUSH1 0x0 PUSH2 0x13B9 PUSH1 0xA DUP4 PUSH2 0xDBD JUMP JUMPDEST SWAP2 POP PUSH2 0x13C4 DUP3 PUSH2 0x1383 JUMP JUMPDEST PUSH1 0xA DUP3 ADD SWAP1 POP SWAP2 SWAP1 POP JUMP JUMPDEST PUSH32 0x2273656E646572223A2200000000000000000000000000000000000000000000 PUSH1 0x0 DUP3 ADD MSTORE POP JUMP JUMPDEST PUSH1 0x0 PUSH2 0x1405 PUSH1 0xA DUP4 PUSH2 0xDBD JUMP JUMPDEST SWAP2 POP PUSH2 0x1410 DUP3 PUSH2 0x13CF JUMP JUMPDEST PUSH1 0xA DUP3 ADD SWAP1 POP SWAP2 SWAP1 POP JUMP JUMPDEST PUSH32 0x227265636569766572223A220000000000000000000000000000000000000000 PUSH1 0x0 DUP3 ADD MSTORE POP JUMP JUMPDEST PUSH1 0x0 PUSH2 0x1451 PUSH1 0xC DUP4 PUSH2 0xDBD JUMP JUMPDEST SWAP2 POP PUSH2 0x145C DUP3 PUSH2 0x141B JUMP JUMPDEST PUSH1 0xC DUP3 ADD SWAP1 POP SWAP2 SWAP1 POP JUMP JUMPDEST PUSH32 0x22616D6F756E74223A2200000000000000000000000000000000000000000000 PUSH1 0x0 DUP3 ADD MSTORE POP JUMP JUMPDEST PUSH1 0x0 PUSH2 0x149D PUSH1 0xA DUP4 PUSH2 0xDBD JUMP JUMPDEST SWAP2 POP PUSH2 0x14A8 DUP3 PUSH2 0x1467 JUMP JUMPDEST PUSH1 0xA DUP3 ADD SWAP1 POP SWAP2 SWAP1 POP JUMP JUMPDEST PUSH32 0x2200000000000000000000000000000000000000000000000000000000000000 PUSH1 0x0 DUP3 ADD MSTORE POP JUMP JUMPDEST PUSH1 0x0 PUSH2 0x14E9 PUSH1 0x1 DUP4 PUSH2 0xDBD JUMP JUMPDEST SWAP2 POP PUSH2 0x14F4 DUP3 PUSH2 0x14B3 JUMP JUMPDEST PUSH1 0x1 DUP3 ADD SWAP1 POP SWAP2 SWAP1 POP JUMP JUMPDEST PUSH32 0x7D00000000000000000000000000000000000000000000000000000000000000 PUSH1 0x0 DUP3 ADD MSTORE POP JUMP JUMPDEST PUSH1 0x0 PUSH2 0x1535 PUSH1 0x1 DUP4 PUSH2 0xDBD JUMP JUMPDEST SWAP2 POP PUSH2 0x1540 DUP3 PUSH2 0x14FF JUMP JUMPDEST PUSH1 0x1 DUP3 ADD SWAP1 POP SWAP2 SWAP1 POP JUMP JUMPDEST PUSH1 0x0 PUSH2 0x1556 DUP3 PUSH2 0x1360 JUMP JUMPDEST SWAP2 POP PUSH2 0x1561 DUP3 PUSH2 0x13AC JUMP JUMPDEST SWAP2 POP PUSH2 0x156D DUP3 DUP8 PUSH2 0xDF2 JUMP JUMPDEST SWAP2 POP PUSH2 0x1578 DUP3 PUSH2 0x1176 JUMP JUMPDEST SWAP2 POP PUSH2 0x1583 DUP3 PUSH2 0x13F8 JUMP JUMPDEST SWAP2 POP PUSH2 0x158F DUP3 DUP7 PUSH2 0xD44 JUMP JUMPDEST PUSH1 0x14 DUP3 ADD SWAP2 POP PUSH2 0x159E DUP3 PUSH2 0x1176 JUMP JUMPDEST SWAP2 POP PUSH2 0x15A9 DUP3 PUSH2 0x1444 JUMP JUMPDEST SWAP2 POP PUSH2 0x15B5 DUP3 DUP6 PUSH2 0xD44 JUMP JUMPDEST PUSH1 0x14 DUP3 ADD SWAP2 POP PUSH2 0x15C4 DUP3 PUSH2 0x1176 JUMP JUMPDEST SWAP2 POP PUSH2 0x15CF DUP3 PUSH2 0x1490 JUMP JUMPDEST SWAP2 POP PUSH2 0x15DB DUP3 DUP5 PUSH2 0xDF2 JUMP JUMPDEST SWAP2 POP PUSH2 0x15E6 DUP3 PUSH2 0x14DC JUMP JUMPDEST SWAP2 POP PUSH2 0x15F1 DUP3 PUSH2 0x1528 JUMP JUMPDEST SWAP2 POP DUP2 SWAP1 POP SWAP6 SWAP5 POP POP POP POP POP JUMP JUMPDEST PUSH1 0x0 PUSH2 0x160A DUP3 PUSH2 0xC12 JUMP JUMPDEST SWAP2 POP PUSH32 0xFFFFFFFFFFFFFFFFFFFFFFFFFFFFFFFFFFFFFFFFFFFFFFFFFFFFFFFFFFFFFFFF DUP3 SUB PUSH2 0x163C JUMPI PUSH2 0x163B PUSH2 0xF5C JUMP JUMPDEST JUMPDEST PUSH1 0x1 DUP3 ADD SWAP1 POP SWAP2 SWAP1 POP JUMP JUMPDEST PUSH32 0x5B00000000000000000000000000000000000000000000000000000000000000 PUSH1 0x0 DUP3 ADD MSTORE POP JUMP JUMPDEST PUSH1 0x0 PUSH2 0x167D PUSH1 0x1 DUP4 PUSH2 0xDBD JUMP JUMPDEST SWAP2 POP PUSH2 0x1688 DUP3 PUSH2 0x1647 JUMP JUMPDEST PUSH1 0x1 DUP3 ADD SWAP1 POP SWAP2 SWAP1 POP JUMP JUMPDEST PUSH32 0x5D00000000000000000000000000000000000000000000000000000000000000 PUSH1 0x0 DUP3 ADD MSTORE POP JUMP JUMPDEST PUSH1 0x0 PUSH2 0x16C9 PUSH1 0x1 DUP4 PUSH2 0xDBD JUMP JUMPDEST SWAP2 POP PUSH2 0x16D4 DUP3 PUSH2 0x1693 JUMP JUMPDEST PUSH1 0x1 DUP3 ADD SWAP1 POP SWAP2 SWAP1 POP JUMP JUMPDEST PUSH1 0x0 PUSH2 0x16EA DUP3 PUSH2 0x1670 JUMP JUMPDEST SWAP2 POP PUSH2 0x16F6 DUP3 DUP5 PUSH2 0xDF2 JUMP JUMPDEST SWAP2 POP PUSH2 0x1701 DUP3 PUSH2 0x16BC JUMP JUMPDEST SWAP2 POP DUP2 SWAP1 POP SWAP3 SWAP2 POP POP JUMP JUMPDEST PUSH1 0x0 PUSH1 0x1F NOT PUSH1 0x1F DUP4 ADD AND SWAP1 POP SWAP2 SWAP1 POP JUMP JUMPDEST PUSH1 0x0 PUSH2 0x1728 DUP3 PUSH2 0xDB2 JUMP JUMPDEST PUSH2 0x1732 DUP2 DUP6 PUSH2 0x1004 JUMP JUMPDEST SWAP4 POP PUSH2 0x1742 DUP2 DUP6 PUSH1 0x20 DUP7 ADD PUSH2 0xDC8 JUMP JUMPDEST PUSH2 0x174B DUP2 PUSH2 0x170C JUMP JUMPDEST DUP5 ADD SWAP2 POP POP SWAP3 SWAP2 POP POP JUMP JUMPDEST PUSH1 0x0 PUSH1 0x20 DUP3 ADD SWAP1 POP DUP2 DUP2 SUB PUSH1 0x0 DUP4 ADD MSTORE PUSH2 0x1770 DUP2 DUP5 PUSH2 0x171D JUMP JUMPDEST SWAP1 POP SWAP3 SWAP2 POP POP JUMP JUMPDEST PUSH1 0x0 PUSH2 0x1783 DUP3 PUSH2 0xC12 JUMP JUMPDEST SWAP2 POP PUSH2 0x178E DUP4 PUSH2 0xC12 JUMP JUMPDEST SWAP3 POP DUP3 DUP3 SUB SWAP1 POP DUP2 DUP2 GT ISZERO PUSH2 0x17A6 JUMPI PUSH2 0x17A5 PUSH2 0xF5C JUMP JUMPDEST JUMPDEST SWAP3 SWAP2 POP POP JUMP JUMPDEST PUSH1 0x0 PUSH2 0x17B7 DUP3 PUSH2 0xC12 JUMP JUMPDEST SWAP2 POP PUSH2 0x17C2 DUP4 PUSH2 0xC12 JUMP JUMPDEST SWAP3 POP DUP3 PUSH2 0x17D2 JUMPI PUSH2 0x17D1 PUSH2 0xE5E JUMP JUMPDEST JUMPDEST DUP3 DUP3 DIV SWAP1 POP SWAP3 SWAP2 POP POP JUMP JUMPDEST PUSH1 0x0 PUSH2 0x17E9 DUP3 DUP7 PUSH2 0xDF2 JUMP JUMPDEST SWAP2 POP PUSH2 0x17F5 DUP3 DUP6 PUSH2 0xDF2 JUMP JUMPDEST SWAP2 POP PUSH2 0x1801 DUP3 DUP5 PUSH2 0xDF2 JUMP JUMPDEST SWAP2 POP DUP2 SWAP1 POP SWAP5 SWAP4 POP POP POP POP JUMP INVALID LOG2 PUSH5 0x6970667358 0x22 SLT KECCAK256 0xC0 0xA9 PUSH7 0x7B7FCCB2A16405 0xC1 DUP1 0xAD SWAP15 DUP3 LOG1 0x4F 0xEF 0xF7 SHR SWAP11 MULMOD SIGNEXTEND 0xDF SWAP1 0xB5 0xC4 DUP1 0xCA ADDMOD 0xDA 0xB5 PUSH5 0x736F6C6343 STOP ADDMOD SGT STOP CALLER "},"methodIdentifiers":{"createBlock()":"ccebafd8","newSpin()":"2676c4c4","send_scam_coins(uint256,address)":"3e745ea9","validate(uint256)":"ce4d01a3"}}}}}